:020000040800F2
:10000000B0050020050100088B1C00089D1A00089F
:10001000891C0008650400085D1F0008000000003E
:100020000000000000000000000000008F1C00081D
:10003000AB040008000000008D1C0008911C0008A3
:100040001F0100081F0100081F0100081F01000810
:100050001F0100081F0100081F0100081F01000800
:100060001F0100081F0100081F01000869040008A3
:100070001F0100081F010008750400081F01000887
:100080001F0100081F010008150300081F010008D8
:100090001F0100081F0100081F0100081F010008C0
:1000A0001F0100081F0100081F0100081F010008B0
:1000B0001F0100081F0100081F0100081F010008A0
:1000C0001F0100081F0100081F0100081F01000890
:1000D0001F010008511F00081F0100081F01000830
:1000E0001F0100081F0100081F010008DFF810D0E1
:1000F00000F0FEF800480047F5210008AFF300804B
:10010000B00500200648804706480047FEE7FEE7A6
:10011000FEE7FEE7FEE7FEE7FEE7FEE7FEE7FEE7B7
:100120000D1D0008ED000008D2B201E000F8012B1F
:10013000491EFBD270470022F6E710B513460A4667
:1001400004461946FFF7F0FF204610BDF0B480EAE0
:100150000102D40F4200B2EB410F02D20246084620
:1001600011464A0042D0C30DDDB2C1F3C752AD1AE9
:10017000202D35DAC1F3160141F4000204B15242D8
:10018000C5F1200602FA06F12A411044B3EBD05F14
:1001900023D0C4B1012DA0EBC35009DCF0BC4FF05B
:1001A000004202EAC352DBB200F5000000F072B870
:1001B000400000F1807000EBC350A0F1807040EA75
:1001C000D170490009E0490841EAC071A0EBC35071
:1001D00000F50000400800EBC350F0BC00F051B83F
:1001E0006142012202EB4101001BF6E7F0BC7047BF
:1001F00081F00041AAE780F00040A7E730B480EA30
:10020000010202F0004530F0004221F0004013D01E
:1002100090B1C30DD40DC2F31601C0F31600E41A59
:1002200041F4000140F400027D34914201D3641C8A
:1002300000E04900002C02DA30BC002070474FF487
:1002400000000023914201D3891A034340084FEA7A
:100250004101F7D151B1914202D14FF0004105E087
:1002600002D24FF0010101E06FF0010103EBC45035
:10027000284430BC00F005B896230022114600F057
:1002800009B80029A8BF7047401C490008BF20F0EA
:100290000100704710B4B0FA80FC00FA0CF050EA8C
:1002A000010404BF10BC704749B1CCF1200421FA0D
:1002B00004F411FA0CF118BF012121430843A3EB08
:1002C0000C01CB1D4FEA00614FEA102042BF002015
:1002D00010BC704700EBC35010440029A4BF10BCF1
:1002E0007047401C490008BF20F0010010BC704757
:1002F000064C074D06E0E06840F0010394E8070073
:1003000098471034AC42F6D3FFF7F4FEA022000861
:10031000C0220008014800F04EB900004000002053
:1003200070B5044600688168C943C90717D1816860
:1003300021F00101816000F0A3FD05460AE000BF45
:1003400000F09EFD401B022804D920688068C0434D
:10035000C00706D020688068C043C007F0D00020E6
:1003600070BDA06A40F01000A062E06A40F0010099
:10037000E062012070BD10B50146406A826A12F049
:10038000500F05D0006A026BBDE8104008461047C8
:10039000816A41F40071816201688968C1F3424158
:1003A00007290CD1017B51B9816A21F480718162E6
:1003B000816AC90403D4816A41F00101816200F0BD
:1003C000F7F810BD10B5406A816A41F040018162C2
:1003D000C16A41F00401C16200F0ECF810BD10B533
:1003E000406A00F0E6F810BDF8B500260446009615
:1003F00000688168C943C9072DD0816841F00101B7
:100400008160164816490068B0FBF1F000E0401E1C
:1004100000900028FBD100F033FD054616E000BF38
:1004200000F02EFD401B022810D920688068C043D0
:10043000C0070BD0A06A40F01000A062E06A40F054
:100440000100E06284F824600120F8BD2068806823
:10045000C043C007E4D10020F8BD00001C0000200C
:1004600040420F00FEE70000014800F0EDBA000036
:1004700070000020014800F0E7BA00006801002089
:1004800030B590F840500124AC40C56B6C600468F6
:1004900063604368102B036803D099600068C260F2
:1004A00030BD9A600068C16030BD704772B6FEE72B
:1004B00070470000F8B50024009490F824202546E9
:1004C000012A12D0012280F824204A681F23072A1B
:1004D0000DD20668776B521E02EB820293409F4357
:1004E0000B6893401F43776319E00220F8BD06684C
:1004F0000D2A0AD2376BD21F02EB820293409F4330
:100500000B6893401F43376309E0F76A0D3A02EB2B
:10051000820293409F430B6893401F43F7620A682F
:10052000072306680A2A0AD3F7680A3A02EB42024E
:1005300093409F438B6893401F43F76008E03769FF
:1005400002EB420293409F438B6893401F43376105
:100550000A68102A01D0112A20D1124B02689A424F
:1005600017D193681B0219D4936843F40003936076
:100570000968102912D10C490C4A0968B1FBF2F143
:1005800001EB8101490000E0491E00910029FBD1E7
:1005900004E0816A41F020018162012480F8245046
:1005A0002046F8BD002401401C00002040420F00FE
:1005B00070477047704710B5044600684168890667
:1005C00026D50168890723D5A16AC90603D4A16A83
:1005D00041F40071A1628168C1F34241072910D141
:1005E000217B71B9416821F020014160A06A20F4AB
:1005F0008070A062A06AC00403D4A06A40F0010029
:10060000A0622046FFF7D4FF21686FF01200086057
:100610002068416809062ED5016849072BD5A16AD3
:10062000C90603D4A16A41F40051A1628168C1F3F3
:100630000231072909D04168490515D48168C1F301
:100640004241072910D1217B71B9416821F0800115
:100650004160A06A20F48050A062A06AC00503D463
:10066000A06A40F00100A0622046FFF721FF216848
:100670006FF00C0008602068416849060DD50068DD
:10068000C0070AD0A06A40F48030A062204600F083
:1006900093F821686FF00100086010BD2DE9F0416A
:1006A0004FF0000704003D467ED0A06A002628B91E
:1006B000E66284F82460204600F080F82046FFF7C8
:1006C0002FFEA16AC90600D420B1A06A40F0100034
:1006D000A06269E0A16A21F4885141F00201A1629F
:1006E0006268E169237B0A4347EA43010A43A16840
:1006F0004FF48077B94209D0012907D05FF000019B
:1007000094F814C0BCF1010F02D00AE03946F7E7B3
:10071000F3B1A36A43F02003A362E36A43F0010349
:10072000E3622368D3F804C02CF4694C4CEA010C52
:10073000C3F804C021688B68DFF870C003EA0C03BB
:1007400013438B60A168B9420BD0012909D00CE09A
:10075000DFF85CC0A3690CEB43330B4343F4006147
:10076000DFE7218A0D05A5F580152168CB6A23F402
:1007700070032B43CB62216889680E4B194091426C
:1007800008D1E662A16A21F0020141F00101A162F3
:10079000BDE8F081A06A20F0020040F01000A062E5
:1007A000E06A40F00100E0620120F1E7FDF7E1FFBF
:1007B00000E0FFFFFE0E1FFF7047000070B586B01F
:1007C00000250646009501950295039500681E498F
:1007D000884236D11D49886940F400708861886973
:1007E00000F400700490886940F004008861886912
:1007F000694600F004000490C3200090032001909B
:10080000134800F043FA144C1248C4E90005802054
:10081000C4E9025080002061800060612020C4E9AA
:100820000605204600F0BAF908B1FFF73FFE346232
:10083000002211461220666200F08EFB122000F0AA
:100840007DFB06B070BD0000002401400010024096
:100850000008014008000240700000202DE9F04728
:10086000894604463B4900683B4F0E1D904688422E
:1008700001D0B84207D1306810F4702F03D00125A1
:100880002846BDE8F08794F8240001280CD0012008
:1008900084F824002046FFF7A7FD05004FF0000074
:1008A00004D084F82400EBE70220EAE7A16A40F6CE
:1008B0000162914341F48071A1622168B94218D16B
:1008C000326812F4702F14D0A16A41F48011A16231
:1008D0003168490505D5A16A21F4005141F48051E0
:1008E000A162A16AC9040AD5E16A21F00601E162A8
:1008F00006E0A26A22F48012A2624968E9E7E06297
:1009000084F82400216A15488862216A1448C86264
:10091000216A1448086321686FF0020008602068AB
:10092000816841F480718160216843464A464C31B8
:10093000206A00F061F920688168C1F3424107290B
:10094000816803D041F48011816099E741F4A001EE
:10095000FAE7000000240140002801407703000866
:10096000DF030008C503000810B590F8211000222D
:10097000022905D00421816380F82020012010BDC8
:1009800001680B6823F00E030B6001680B6823F00D
:1009900001030B6090F84030C46B012101FA03F3AE
:1009A000636080F8211080F82020104610BD000000
:1009B00010B590F821100024022903D0042181638E
:1009C00001243DE001680A6822F00E020A60016815
:1009D0000A6822F001020A601A4A0168914201D1B4
:1009E000012121E0174A1432914201D110211BE06C
:1009F000144A2832914201D1891515E0114A3C323E
:100A0000914201D189140FE00E4A5032914202D135
:100A10004FF4803108E00B4A6432914202D14FF426
:100A2000801101E04FF08071064A083A51600121BF
:100A300080F82110002180F82010416B01B1884717
:100A4000204610BD080002402DE9F05FC16B0C6824
:100A500001680B68D0F840C0042202FA0CF2494D3C
:100A6000DFF824A1494E4A4FDFF828B1DFF828E12A
:100A700022422CD05A072AD50A68920603D40A6863
:100A800022F004020A600168A94201D1042219E09F
:100A9000514501D1402215E0B14202D14FF48062AC
:100AA00010E0B94202D14FF480420BE0594502D127
:100AB0004FF4802206E0714502D14FF4800201E03C
:100AC0004FF080622F4908394A60C16A3BE04FF01D
:100AD000020808FA0CF818EA040F4FF000094FF06A
:100AE000010235D05FEA837832D50B689B0605D4C6
:100AF0000B6823F00A030B6080F821200168A942EB
:100B000001D1022219E0514501D1202215E0B14264
:100B100002D14FF4007210E0B94202D14FF40052FA
:100B20000BE0594502D14FF4003206E0714502D185
:100B30004FF4001201E04FF00072124908394A6088
:100B400080F82090816A00291AD0BDE8F05F08473C
:100B5000082505FA0CF5254212D01B0710D50B68A5
:100B600023F00E030B6090F84010C36B02FA01F102
:100B70005960826380F8212080F82090016BE2E7C1
:100B8000BDE8F09F080002401C0002403000024017
:100B900044000240580002406C00024030B528B3C7
:100BA00008C8134914221944B1FBF2F18900C1634A
:100BB00010498163022141771A6843F6F0718A4334
:100BC000D0E900142143D0E902452C4321430469B4
:100BD0002143446921438469214311431960002161
:100BE0004163012242770177084630BD012030BDC4
:100BF000F8FFFDBF0000024070B5044690F82000E9
:100C0000002501280CD0012084F8200094F82160F0
:100C10000020012E06D084F820000225284670BD51
:100C2000022070BD022684F82160A0632068066857
:100C300026F0010606602046FFF722FCE06A002845
:100C40002068016802D041F00E0106E021F00401A5
:100C500001602068016841F00A01016020680168B4
:100C600041F001010160D9E770B5044600F008F9D0
:100C70000546601C02D004480078044400F000F9E6
:100C8000401BA042FAD370BD100000202DE9F84FA0
:100C9000DFF8B891002409F1040A0AF1040B234695
:100CA0000F270BF1040EC9E00125A5402A40AA42F6
:100CB0007DD1674ED1F804C0ACEB0608B44532D004
:100CC00014DCBCF1030F3AD009DCBCF1000F2AD0D0
:100CD000BCF1010F1CD0BCF1020F31D11DE0BCF101
:100CE000110F17D0BCF1120F2AD119E0B8F5881FE7
:100CF00019D006DCB8F5803F15D0B8F5801F1FD19C
:100D000011E0B8F5001F0ED0B8F5041F18D10AE0A5
:100D1000CB6815E0CB681B1D12E0CB6808330FE0F1
:100D2000CB680C330CE08B682BB1012B4FF0080320
:100D300003D0456104E0042302E0056100E00023E4
:100D4000FF2A01D8064601E000F104064FEA8405B7
:100D500001D9A5F12005D6F8008007FA05FC28EA9C
:100D60000C0803FA05F548EA0508C6F800804D6846
:100D7000ED0062D5374DAE6946F00106AE61AD6952
:100D800024F0030605F001050095334D06EB050C34
:100D9000DCF80850A607360F07FA06F825EA08051A
:100DA000DFF8B880404503D14FF0000817E044E079
:100DB000DFF8AC80404502D14FF001080FE0DFF8CA
:100DC000A480404502D14FF0020808E0DFF8988087
:100DD000404502D14FF0030801E04FF0040808FA43
:100DE00006F848EA0508CCF808804D68D9F8006094
:100DF000ED034D4601D5164300E096432E604D6845
:100E0000DAF80060AD03554601D5164300E096437D
:100E10002E604D68DBF80060ED025D4601D516439B
:100E200000E096432E604D68DEF80060AD02754626
:100E300001D5164300E096432E60641C0D682A46D7
:100E4000E5407FF431AFBDE8F88F000000040140B9
:100E50000000111000100240000001400008014095
:100E6000000C01400010014000140140806808405F
:100E700000D0012070470AB1016170470904FBE707
:100E80000148806870470000100000200248816817
:100E9000027811448160704710000020074810B5A7
:100EA000016841F010010160032000F075F8002096
:100EB00000F006F800F024F8002010BD00200240E9
:100EC00070B50D4D04464FF47A712878B1FBF0F0FF
:100ED0000A490968B1FBF0F000F0F6FB48B9102CA4
:100EE00007D200222146501E00F036F800206C6028
:100EF00070BD012070BD0000100000201C0000200B
:100F00000C4808B5816941F001018161816901F0F6
:100F100001010091C16941F08051C161C06900F0D7
:100F2000805000900448416821F0E06141F0007178
:100F3000416008BD0010024000000140002809DBAC
:100F400000F01F02012191404009800000F1E020E3
:100F5000C0F8001170470000F0B40E4B1B680C463F
:100F6000C3F30223C3F10705042D00D90425191D7D
:100F7000072901D2002300E0DB1E012606FA05F155
:100F8000491E214099409E40761E16403143F0BCD8
:100F900000F0E5BF0CED00E0064900F0070208682C
:100FA0004FF6FF03184040EA0220034A104308604E
:100FB000704700000CED00E00000FA052DE9F84351
:100FC00005460078354CC00754D0E0690026C000C3
:100FD00008D4E06940F08050E061E069012600F04B
:100FE000805000902E480168C90512D401688046DF
:100FF00041F480710160FFF743FF074605E000BF41
:10100000FFF73EFFC01B642823D8D8F80000C005B6
:10101000F6D5206A10F4407021D0A98801F44071FF
:1010200081421CD0206A1F49012220F440700A60CE
:1010300000220A602062C00711D0FFF721FF074697
:1010400041F2883808E000BFFFF71AFFC11B414595
:1010500002D90320BDE8F883206A8007F4D5206A0E
:10106000696820F44070084320621EB1E06920F0F6
:101070008050E0612878800705D56068A96820F471
:101080004040084360602878C00605D56068E9687C
:1010900020F48000084360600020DBE7001002407D
:1010A00000700040400442422DE9F0470F46050021
:1010B00061D0434E306800F00700B84209D2306872
:1010C00020F0070038433060306800F00700B84275
:1010D00051D128683B4C810712D5400703D5606881
:1010E00040F4E06060602878000703D5606840F451
:1010F000605060606068A96820F0F000084360609C
:101100002878C00728D06868012810D021680228F4
:1011100010D0890700292EDA616821F0030101430C
:101120006160FFF7ADFE804641F288390DE021682D
:101130008903EFE78901EDE7FFF7A2FEA0EB0801C5
:10114000494502D90320BDE8F0876068696800F06E
:101150000C00B0EB810FEFD1306800F00700B8420F
:101160000BD9306820F0070038433060306800F059
:101170000700B84201D00120E5E72878400705D5EF
:101180006068E96820F4E060084360602878000740
:1011900006D56068296920F4605040EAC1006060AB
:1011A00000F038F86168084AC1F30311515CC84087
:1011B0000649086006480068FFF782FE0020C2E783
:1011C0000020024000100240882200081C0000207D
:1011D000140000200448054900684968044AC1F326
:1011E0000221515CC84070471C00002000100240E2
:1011F000982200080448054900684968044AC1F378
:10120000C221515CC84070471C0000200010024001
:101210009822000812A185B00FC98DE80F0014A014
:10122000144A006804905168134801F00C03042B21
:1012300010D0082B0ED1C1F38343C9031DF803005E
:101240000AD5516804AAC1F34041515C0A4A50438F
:10125000B0FBF1F005B0704708494843FAE70000D9
:1012600002030405060708090A0B0C0D0E0F1010E7
:10127000010200000010024000127A0000093D0047
:101280002DE9F84F040070D02078C04DC00749D038
:101290006868C0F38100012807D06868C0F3810046
:1012A000022809D16868C00306D52868800339D5AB
:1012B00060680028E7D035E06068B0F5803F0BD06B
:1012C00010B1B0F5A02F11D0286820F4803028602C
:1012D000286820F4802002E0286840F480302860EC
:1012E000606890B1FFF7CCFD06460AE0286840F43C
:1012F00080202860F0E700BFFFF7C2FD801B642854
:1013000073D828688003F7D50CE0FFF7B9FD0646CF
:1013100005E000BFFFF7B4FD801B6428F0D8286803
:101320008003F7D420789A4E80074FF001094FF0E0
:10133000000839D5686810F00C0F07D06868C0F352
:101340008100022809D16868C00306D42868800794
:1013500014D52069012808D110E02069B0B1C6F881
:101360000090FFF78DFD074605E00AE1FFF788FDD5
:10137000C01B0228C4D828688007F7D5286861698F
:1013800020F0F80040EAC10028600DE0C6F80080B7
:10139000FFF776FD074604E0FFF772FDC01B022849
:1013A00023D828688007F7D4207800072CD57948FF
:1013B000A169D9B1C0F80090FFF762FD074604E0CB
:1013C000FFF75EFDC01B02280FD8686A8007F7D5BB
:1013D00071484FF4FA510068B0FBF1F0009000BF83
:1013E0000098411E0091FAD20EE080E0C0F8008023
:1013F000FFF746FD074604E0FFF742FDC01B022849
:1014000075D8686A8007F7D42078400760D5E86906
:101410000027C00008D4E86940F08050E861E8691E
:10142000012700F0805000905C480168C90513D482
:101430000168834641F480710160FFF721FD824617
:1014400006E000BFFFF71CFDA0EB0A0064284ED8A1
:10145000DBF80000C005F5D5E06801280AD008B126
:10146000052813D0286A20F001002862286A20F09D
:10147000040002E0286A40F001002862E06841F2BE
:10148000883B98B1FFF7FCFC82460BE0286A40F0ED
:1014900004002862EEE700BFFFF7F2FCA0EB0A01B0
:1014A00059455AD8286A8007F6D50CE0FFF7E8FCC2
:1014B000824605E0FFF7E4FCA0EB0A0159454CD851
:1014C000286A8007F6D41FB1E86920F08050E861EF
:1014D000E06988B36968C1F38101022944D0022818
:1014E000C6F8608004D0FFF7CBFC044638E034E057
:1014F000FFF7C6FC074604E0FFF7C2FCC01B02284A
:101500002BD828688001F7D4206AB0F5803F05D138
:101510006868A16820F4003008436860D4E90801D5
:101520000843696821F4741108436860C6F8609044
:10153000FFF7A6FC044606E025E000BFFFF7A0FC8D
:10154000001B022809D828688001F7D51BE000BFDE
:10155000FFF796FC001B022802D90320BDE8F88F94
:1015600028688001F4D40EE00128F7D06868226A68
:1015700000F48031914204D1616A00F47010884215
:1015800001D00120EAE70020E8E700000010024057
:1015900000004242800442421C00002000700040D3
:1015A00070B5040009D0606A002540B1256165610D
:1015B000A56294F8510040B10CE0012070BD606854
:1015C000B0F5827FF4D0E561F2E784F85050204610
:1015D00000F040F8022084F851002068016821F0F2
:1015E00040010160A088218900F4827001F4044167
:1015F0000843A18901F400610843217C01F0020144
:101600000843217D01F001010843218B01F40071A1
:101610000843217F01F03801084394F8201001F0BD
:1016200080010843218D01F40051084321680860BE
:10163000A069042101EA1040216848602068C1695E
:1016400021F40061C1616565012084F8510000202A
:1016500070BD000030B585B0002400940194029460
:10166000039400681549884225D11548C16941F4A1
:101670008041C161C16901F480410491816941F0F7
:101680000801816180690F4D00F0080004904FF45B
:1016900020400090022001900320039069462846D4
:1016A000FFF7F4FA4FF48040CDE90004694628467C
:1016B0000294FFF7EBFA05B030BD0000003800409F
:1016C00000100240000C014010B5401EB0F1807FB8
:1016D00001D3012010BD4FF0E02460610F2160179D
:1016E00000F03DFC0020A06107202061002010BD1B
:1016F00070477047F8B5026804461068D1685369AE
:1017000010F00F0F4FF0000553D003F0010601F465
:10171000907737435FD0C20705D0CA0503D5226C46
:1017200042F001022264420705D5DA0703D0226C99
:1017300042F002022264820705D5DA0703D0226C48
:1017400042F004022264020707D501F0200232436E
:1017500003D0226C42F008022264226C002A34D0AA
:10176000800604D5880602D5204600F03AFB2068A2
:101770004069216CC0F38010090700D430B32046C3
:1017800000F00EFB2068416949061BD5416921F034
:1017900040014161A06BA8B158494163A06BFFF7BC
:1017A00007F9002811D0A06B416B01B0BDE8F040F3
:1017B000084783060FD58B060DD52046BDE8F840B7
:1017C00000F00FBB2046FFF794FFF8BD2046FFF75F
:1017D00090FF2564F8BD266B2023012E52D1C6064A
:1017E00050D5CE064ED5106850680090506940061E
:1017F0002AD5A16B086840680004000CEAD0A68DC9
:101800008642E7D9E0858869202818D0D06820F47E
:101810008070D0602068416921F001014161206839
:10182000416921F04001416184F83E302563206820
:10183000C16821F01001C160A06BFFF795F8A08D81
:10184000E18D401A81B219E0A08DE18D401A81B27C
:10185000E08D0028BED00029BCD0D06820F4907064
:10186000D0602068426922F00102426184F83E3073
:1018700025632068C26822F01002C2602046FFF78C
:1018800037FFF8BD05062BD50D0629D594F83D0088
:101890002128F6D1A068B0F5805F01D12069B0B1F0
:1018A000206A411C2162216800784860E08C401E5B
:1018B0000004000CE084E4D12068C16821F08001BC
:1018C000C1602068C16841F04001C160F8BD206A74
:1018D0000088C0F308005060206A801C2062E5E7A1
:1018E0004006F3D54806F1D5D168204621F04001E5
:1018F000D16084F83D3000F0CFF8F8BD0F1D00082E
:1019000070B5040004D094F83D00002510B106E045
:10191000012070BD84F83C50204600F023F82420BC
:1019200084F83D002068C16821F40051C160204660
:1019300000F0B2FA2068016921F490410161206849
:10194000416921F02A0141612068C16841F40051D8
:10195000C1602564202084F83D0084F83E0000200A
:1019600070BD000070B586B0002506460095019553
:10197000029503950068224988423FD12149886930
:1019800040F480408861886900F480400490886950
:1019900040F00400886188691B4C00F0040004904A
:1019A00048150090022001900320039069462046CC
:1019B000FFF76CF92015CDE9000569462046029530
:1019C000FFF764F9124C114820601020C4E90105AA
:1019D0008020C4E903056561A5612046E561FFF744
:1019E000DDF808B1FEF762FD746300221146252080
:1019F0006662FFF7B1FA2520FFF7A0FA06B070BDC6
:101A0000003801400010024000080140440002403C
:101A1000680100207047000070B5044690F83D0052
:101A2000202830D169B362B394F83C0001282AD051
:101A3000012084F83C002162A284E2840025256410
:101A4000212084F83D00636B10489862636B104856
:101A5000D862636B0F481863606B13464563266852
:101A6000606B321DFFF7C8F821686FF04000086016
:101A700084F83C502068416941F0800141610020B8
:101A800070BD012070BD022070BD0000691D0008FE
:101A9000971D00081F1D000870477047FEE70000F3
:101AA000FEB500252148009501951F49029501606A
:101AB00089158160012404730575042606614FF4BD
:101AC00060214560C161FEF7E9FD08B1FEF7EEFC5B
:101AD0000720CDE90004029069461448FEF7EAFCAD
:101AE00008B1FEF7E3FC0620009002200190694651
:101AF0000E48FEF7DFFC08B1FEF7D8FC0320CDE965
:101B0000005069460948FEF7D5FC08B1FEF7CEFC47
:101B1000CDE9004669460548FEF7CCFC002801D017
:101B2000FEF7C4FCFEBD0000002401404000002080
:101B30000D4808B5416941F0010141614069002249
:101B400000F00100009011460B20FFF705FA0B2072
:101B5000FFF7F4F9002211460E20FFF7FDF9BDE86A
:101B600008400E20FFF7EAB90010024070B586B0B9
:101B7000002423480094019402940394816941F065
:101B800020018161816901F020010491816941F0A6
:101B900004018161816901F004010491816941F0CE
:101BA000080181618069174E00F00800049000224E
:101BB00040F203413046FFF75EF901224FF47071A5
:101BC0003046FFF758F940F2C3700125CDE9000512
:101BD0000220CDE9024069463046FFF757F84FF43E
:101BE00010408DE8310069460748FFF74FF8302074
:101BF0008DE8310069463046FFF748F806B070BD01
:101C000000100240000C0140000801400F4810B5D0
:101C10000D4901604FF48271416000218160C16013
:101C20004FF400720161C0E90512C16101624162B5
:101C300081620A21C162FFF7B3FC002803D0BDE82E
:101C40001040FEF733BC10BD00380040B400002047
:101C50000C4810B50A4901604FF41651416000214B
:101C600081600C22C160C0E904128161C161FFF78B
:101C700047FE002803D0BDE81040FEF717BC10BD9A
:101C80000038014024010020FEE7FEE7704770475E
:101C9000FFF7FCB830B593B028216846FEF74BFA41
:101CA00014210AA8FEF747FA002501200F95109588
:101CB0001195010412958DE8230004904FF4E01073
:101CC000CDE90810022407946846FFF7D9FA08B155
:101CD00072B6FEE70AA90F2081E831004FF4806058
:101CE000CDE90D0502210AA8FFF7DEF908B172B6A9
:101CF000FEE74FF4004011900F940FA8FFF75EF934
:101D0000002801D072B6FEE713B030BD704710B5A1
:101D1000406A0021C185C184FFF7EBFC10BD70B59E
:101D2000446A2068406994F83D10C0F3C010002553
:101D3000212904D118B1E584204600F049F8206833
:101D4000406994F83E10C0F38010222904D118B1E4
:101D5000E585204600F024F8206C40F01000206457
:101D60002046FFF7C6FC70BD10B50146406A096801
:101D7000096889060CD40021C18401684A6922F0EF
:101D800080024A610068C16841F04001C16010BD35
:101D9000FFF782FE10BD10B5406AFFF77EFE10BD52
:101DA0000168CA6822F49072CA6001684A6922F028
:101DB00001024A61016B012904D10168CA6822F05D
:101DC0001002CA60202180F83E1000210163704794
:101DD0000168CA6822F0C002CA60202180F83D1064
:101DE000704708B590F83E10222901D0022008BDA6
:101DF00082684FF480539A4201D1016921B1816A0E
:101E00009A421BD04AB10AE00268816A5268C2F362
:101E100008020A80816A891C08E0026972B10268BE
:101E2000526802F07F020A70816A491C8162C18D8A
:101E3000491E0904090CC18503D019E002685268E3
:101E4000F1E70168CA6822F02002CA600168CA6826
:101E500022F48072CA6001684A6922F001024A6174
:101E6000202180F83E10016B012903D0FFF7D2FD3D
:101E7000002008BD002101630168CA6822F0100239
:101E8000CA6001680A68D20602D50A6849680091EA
:101E9000818DFFF72DFCEBE770B504460068016902
:101EA000E26821F44051114301612169A0680843AF
:101EB000616908432168CA6841F20C639A4302438E
:101EC000CA6020684169A26921F4407111434161EF
:101ED0001E492068884202D1FFF78CF901E0FFF724
:101EE00079F900EBC00101EB001260686421800009
:101EF000B2FBF0F3B3FBF1F36FF018067343B2FBE0
:101F0000F0F5B2FBF0F605EB8305322303EB051584
:101F1000B5FBF1F5B6FBF1F605F0F00505EB06159E
:101F2000B2FBF0F6B2FBF0F0B0FBF1F06FF018028C
:101F3000504306EB800003EB0010B0FBF1F021688A
:101F400000F00F002844886070BD00000038014098
:101F50000148FFF7CFBB000024010020FEE709077E
:101F6000090E002804DB00F1E02080F8001470471F
:101F700000F00F0000F1E02080F8141D704702E02F
:101F800008C8121F08C1002AFAD170477047002004
:101F900001E001C1121F002AFBD170470749084820
:101FA0000A6840F8052F4A6842608A688260C968FA
:101FB000C1600449097801747047000030000020B6
:101FC0000C010020000000202DE9F05F2F4E40F6AC
:101FD000863537683846FEF74FF9DFF8B480DFF80A
:101FE000B490DFF8B4A006F110044FF07C5BAF4270
:101FF00003D84146FEF702F908E04946FEF7F8F833
:102000005146FEF7FBF85946FEF7A0F820607768C6
:102010003846FEF731F9AF4203D84146FEF7EEF8F5
:1020200008E04946FEF7E4F85146FEF7E7F859465E
:10203000FEF78CF86060B7683846FEF71DF9AF42CE
:1020400003D84146FEF7DAF808E04946FEF7D0F833
:102050005146FEF7D3F85946FEF778F8A060F668C7
:102060003046FEF709F9AE4203D84146FEF7C6F8FE
:1020700008E04946FEF7BCF85146FEF7BFF859465E
:10208000FEF764F8E060BDE8F09F0000200000204B
:102090000060B8450060384500400F4570B51D4DE3
:1020A0004FF400412846FEF7E1FE1B4CC000A91486
:1020B00020702846FEF7DAFE2178184D41EA8000AC
:1020C000207010212846FEF7D1FE217841EA400019
:1020D000207020212846FEF7C9FE21780843207091
:1020E0000F280DD00A20FEF7BFFD20780F2807D05B
:1020F000072807D00B2807D00D2807D00E2807D0B7
:10210000002070BD012070BD022070BD032070BD95
:10211000042070BD000801400C000020000C0140AC
:1021200070B5324D002240212846FEF7A4FEFFF78D
:10213000B5FF2F4CA07040B1FFF7B0FF0028FBD1D6
:10214000A078FD2101EB800060700122402128462B
:10215000FEF791FE002280212846FEF78CFEFFF755
:102160009DFFA07048B100BFFFF798FF0028FBD18A
:10217000A078FE2101EB80006070012280212846BA
:10218000FEF779FE4FF48076002231462846FEF7AE
:1021900072FEFFF783FFA07048B100BFFFF77EFF1C
:1021A0000028FBD1A078FF2101EB800060700122A4
:1021B00031462846FEF75FFE4FF400760022314696
:1021C0002846FEF758FEFFF769FFA07038B100BF40
:1021D000FFF764FF0028FBD1A07880006070012227
:1021E00031462846FEF747FE607870BD000C01407E
:1021F0000C000020FEF752FEFFF74CFDFFF7B6FC87
:10220000FFF796FCFFF724FDFFF74AFCFFF7FEFC03
:1022100000F02CF8042210491048FEF71FFB104C68
:102220006425A068411EA16000280BDAFFF7B6FE06
:1022300016220C490C48FFF7EFFB10B96068401CF0
:102240006060A560FFF7C0FEFFF76AFF2070012005
:10225000FEF70AFDE5E70000200000204000002016
:10226000000000200C010020240100200548FF216F
:10227000C1705521017100210170012141701421AB
:10228000817070470C010020000000000000000079
:10229000010203040607080900000000010203040C
:1022A000C022000800000020200000007E1F00085F
:1022B000E022000820000020900500008E1F00088A
:1022C000000000000000000064000000FF000000AB
:1022D0000100000010000000000000000024F400D5
:04000005080000ED02
:00000001FF
