:020000040800F2
:10000000F805002005010008872B00083D240008A2
:10001000852B0008C108000815300008000000000A
:10002000000000000000000000000000652C000837
:100030000709000800000000892B0008672C000851
:100040001F0100081F0100081F0100081F01000810
:100050001F0100081F0100081F0100081F01000800
:100060001F0100081F0100081F010008C508000843
:100070001F0100081F010008D10800081F01000827
:100080001F0100081F010008710700081F01000878
:100090001F0100081F0100081F0100081F010008C0
:1000A0001F0100081F0100081F0100081F010008B0
:1000B000E52C00081F0100081F0100081F010008AF
:1000C0001F0100081F0100081F0100081F01000890
:1000D0001F010008093000081F0100081F01000867
:1000E0001F0100081F0100081F010008DFF810D0E1
:1000F00000F02CFB0048004725340008AFF30080D7
:10010000F80500200648804706480047FEE7FEE75E
:10011000FEE7FEE7FEE7FEE7FEE7FEE7FEE7FEE7B7
:10012000E32C0008ED000008202A04DB203A21FA25
:1001300002F00021704721FA02F3D040C2F1200200
:10014000914008431946704740EA01039B0703D0DA
:1001500009E008C9121F08C0042AFAD203E011F806
:10016000013B00F8013B521EF9D27047D2B201E0C8
:1001700000F8012B491EFBD270470022F6E710B5AC
:1001800013460A4604461946FFF7F0FF204610BD05
:10019000F0B480EA0102D40F4200B2EB410F02D268
:1001A0000246084611464A0042D0C30DDDB2C1F3F3
:1001B000C752AD1A202D35DAC1F3160141F4000201
:1001C00004B15242C5F1200602FA06F12A41104458
:1001D000B3EBD05F23D0C4B1012DA0EBC35009DC39
:1001E000F0BC4FF0004202EAC352DBB200F500005F
:1001F00000F020BA400000F1807000EBC350A0F185
:10020000807040EAD170490009E0490841EAC071B4
:10021000A0EBC35000F50000400800EBC350F0BC59
:1002200000F0FFB96142012202EB4101001BF6E739
:10023000F0BC704781F00041AAE780F00040A7E7DA
:1002400030B480EA010202F0004530F0004221F0B3
:10025000004013D090B1C30DD40DC2F31601C0F30A
:100260001600E41A41F4000140F400027D3491428A
:1002700001D3641C00E04900002C02DA30BC0020ED
:1002800070474FF400000023914201D3891A0343C1
:1002900040084FEA4101F7D151B1914202D14FF0EC
:1002A000004105E002D24FF0010101E06FF00101D1
:1002B00003EBC450284430BC00F0B3B92DE9FE4F25
:1002C000804681EA0300C00F0C46009021F00041F7
:1002D00023F00045B8EB0200A94105D24046214673
:1002E00090461C460B46024623F00040104347D080
:1002F000270DC7F30A00C3F30A510290401A019078
:1003000040286BDAC3F3130040F4801B0098924638
:1003100020B10023D2EB030A63EB0B0B0198594683
:10032000C0F14002504600F05BF906460D465046CB
:100330005946019A00F063F910EB0800614100246E
:1003400087EA115284EAE7731A4340D0009A62B3F5
:10035000019A012A4FEA075215DC001B61EB0201EA
:100360004FF0004202EA0752CDE90042001C41F57D
:10037000801132462B4600F09AF903B0BDE8F08FA9
:1003800040462146F9E7001B61EB0201001C41F5E4
:10039000801300185B412018A2F5001747EB0301FA
:1003A00040EAD570B6196D4111E06D084FEA360686
:1003B00045EAC0754FEA0752001B61EB0201001CC1
:1003C00041F5801149084FEA300000195141324689
:1003D0002B4603B0BDE8F04F00F05AB90098012257
:1003E00040000023D0EB020263EBE073009821464B
:1003F0004FEAE074B8EB000061EB0401E9E783F039
:1004000000435BE781F0004158E72DE9FE4F81EAA8
:10041000030404F0004421F0004100944FF0000B6D
:1004200023F0004350EA01045ED052EA03045BD09B
:10043000C3F30A54C1F30A552C44A4F2F3340194D3
:10044000A0FB0254C1F3130141F48011C3F3130361
:1004500043F4801301FB024400FB034E840A970A15
:1004600044EA815447EA8357A4FB076802958D0A42
:1004700005FB07854FEA932C04FB0C542705029DCE
:100480004FEA065847EA1637B5EB08056EEB070C3E
:10049000870E920E47EA811742EA8312A7FB0201F8
:1004A000B6EB0B0164EB00042B0D43EA0C335E1832
:1004B00044EB1C50DA465146E7FB0201C5F3130436
:1004C0004FEA0B3343EA14534FEA0432019C43EAE8
:1004D0000603A4F10C040294009CCDE900B400F0E2
:1004E000E6F803B0BDE8F08F00200146F9E7962357
:1004F0000022114600F09EB80EB5C10F80EAE070F0
:100500000844CA07002140F233438DE80E000A4632
:100510000B4600F0CCF803B000BD70B5C1F30A5231
:1005200001F000450024C1F3130140F2FF3341F410
:1005300080119A4201DA002070BD40F233439A42A2
:10054000A2F2334203DC5242FFF7EEFD00E090409E
:100550002C43F1D0404270BD00F0004230F000402A
:100560000AD0C10D01F56071C0F3160042EA0151D5
:10057000C208400711437047002001467047000041
:1005800030B5041E71F1000404DB4FF0004440421A
:1005900064EB0101141E73F1000405DB1C464FF0EF
:1005A0000043524263EB04038B4208BF824230BDDA
:1005B00030B5041E71F1000404DB4FF000444042EA
:1005C00064EB0101141E73F1000405DB1C464FF0BF
:1005D0000043524263EB0403994208BF904230BD8E
:1005E000202A04DB203A00FA02F1002070479140F3
:1005F000C2F1200320FA03F3194390407047202AE8
:1006000006DBCB17203A41FA02F043EAE07306E03A
:1006100041FA02F3D040C2F120029140084319464A
:1006200070470029A8BF7047401C490008BF20F050
:100630000100704710B4B0FA80FC00FA0CF050EAE8
:10064000010404BF10BC704749B1CCF1200421FA69
:1006500004F411FA0CF118BF012121430843A3EB64
:100660000C01CB1D4FEA00614FEA102042BF002071
:1006700010BC704700EBC35010440029A4BF10BC4D
:100680007047401C490008BF20F0010010BC7047B3
:1006900010B5141E73F1000408DA401C41F100018A
:1006A00092185B411A4301D120F0010010BD2DE9E1
:1006B000F04D92469B4611B1B1FA81F202E0B0FAD8
:1006C00080F220329046FFF78BFF04460F4640EA47
:1006D0000A0041EA0B0153465A46084313D011461B
:1006E00053EA010019D0C8F140025046FFF71CFD43
:1006F00005460E46504659464246FFF771FF0843ED
:1007000005D0012004E020463946BDE8F08D0020E8
:10071000054346EAE0762C4337430A986305E40A2A
:10072000A0EB08000022FD0A44EA47540A3002D533
:1007300000200146E9E7010510196941DDE9084596
:1007400000196941BDE8F04DA2E70000064C074DD5
:1007500006E0E06840F0010394E807009847103491
:10076000AC42F6D3FFF7C6FC3C3D00085C3D0008F8
:10077000014800F04EB900005800002070B5044652
:1007800000688168C943C90717D1816821F0010158
:10079000816000F0A3FD05460AE000BF00F09EFD69
:1007A000401B022804D920688068C043C00706D0D7
:1007B00020688068C043C007F0D0002070BDA06AE8
:1007C00040F01000A062E06A40F00100E062012009
:1007D00070BD10B50146406A826A12F0500F05D014
:1007E000006A026BBDE8104008461047816A41F478
:1007F0000071816201688968C1F3424107290CD107
:10080000017B51B9816A21F480718162816AC904D6
:1008100003D4816A41F00101816200F0F7F810BD54
:1008200010B5406A816A41F040018162C16A41F0BD
:100830000401C16200F0ECF810BD10B5406A00F090
:10084000E6F810BDF8B500260446009600688168F9
:10085000C943C9072DD0816841F001018160164864
:1008600016490068B0FBF1F000E0401E009000283F
:10087000FBD100F033FD054616E000BF00F02EFD71
:10088000401B022810D920688068C043C0070BD0E5
:10089000A06A40F01000A062E06A40F00100E0624F
:1008A00084F824600120F8BD20688068C043C00738
:1008B000E4D10020F8BD00001800002040420F00E5
:1008C000FEE70000014800F0EDBA000088000020BB
:1008D000014800F0E7BA0000B001002030B590F800
:1008E00040500124AC40C56B6C6004686360436891
:1008F000102B036803D099600068C26030BD9A6015
:100900000068C16030BD704772B6FEE770470000F6
:10091000F8B50024009490F824202546012A12D02E
:10092000012280F824204A681F23072A0DD2066876
:10093000776B521E02EB820293409F430B689340F9
:100940001F43776319E00220F8BD06680D2A0AD21A
:10095000376BD21F02EB820293409F430B68934098
:100960001F43376309E0F76A0D3A02EB82029340B6
:100970009F430B6893401F43F7620A68072306688A
:100980000A2A0AD3F7680A3A02EB420293409F43CD
:100990008B6893401F43F76008E0376902EB42021F
:1009A00093409F438B6893401F4337610A68102A26
:1009B00001D0112A20D1124B02689A4217D19368B4
:1009C0001B0219D4936843F400039360096810294B
:1009D00012D10C490C4A0968B1FBF2F101EB81011B
:1009E000490000E0491E00910029FBD104E0816A22
:1009F00041F020018162012480F824502046F8BD96
:100A0000002401401800002040420F00704770474A
:100A1000704710B5044600684168890626D501680C
:100A2000890723D5A16AC90603D4A16A41F40071DC
:100A3000A1628168C1F34241072910D1217B71B9BC
:100A4000416821F020014160A06A20F48070A0621A
:100A5000A06AC00403D4A06A40F00100A06220464E
:100A6000FFF7D4FF21686FF012000860206841682A
:100A700009062ED5016849072BD5A16AC90603D4FA
:100A8000A16A41F40051A1628168C1F302310729D2
:100A900009D04168490515D48168C1F3424107294D
:100AA00010D1217B71B9416821F080014160A06AB9
:100AB00020F48050A062A06AC00503D4A06A40F070
:100AC0000100A0622046FFF721FF21686FF00C00B3
:100AD00008602068416849060DD50068C0070AD043
:100AE000A06A40F48030A062204600F093F82168AC
:100AF0006FF00100086010BD2DE9F0414FF00007D4
:100B000004003D467ED0A06A002628B9E66284F83B
:100B10002460204600F080F82046FFF72FFEA16AEF
:100B2000C90600D420B1A06A40F01000A06269E0BC
:100B3000A16A21F4885141F00201A1626268E16971
:100B4000237B0A4347EA43010A43A1684FF48077B5
:100B5000B94209D0012907D05FF0000194F814C010
:100B6000BCF1010F02D00AE03946F7E7F3B1A36AFE
:100B700043F02003A362E36A43F00103E3622368C6
:100B8000D3F804C02CF4694C4CEA010CC3F804C03F
:100B900021688B68DFF870C003EA0C0313438B6095
:100BA000A168B9420BD0012909D00CE0DFF85CC084
:100BB000A3690CEB43330B4343F40061DFE7218A65
:100BC0000D05A5F580152168CB6A23F470032B432E
:100BD000CB62216889680E4B1940914208D1E662C8
:100BE000A16A21F0020141F00101A162BDE8F0819A
:100BF000A06A20F0020040F01000A062E06A40F01D
:100C00000100E0620120F1E7FDF7E1FF00E0FFFFF6
:100C1000FE0E1FFF7047000070B586B00025064627
:100C2000009501950295039500681E49884236D1CA
:100C30001D49886940F400708861886900F400707B
:100C40000490886940F0040088618869694600F072
:100C500004000490C320009003200190134800F08A
:100C600043FA144C1248C4E900058020C4E902503C
:100C700080002061800060612020C4E906052046D4
:100C800000F0BAF908B1FFF73FFE346200221146C6
:100C90001220666200F08EFB122000F07DFB06B091
:100CA00070BD000000240140001002400008014017
:100CB00008000240880000202DE9F04789460446DC
:100CC0003B4900683B4F0E1D9046884201D0B84218
:100CD00007D1306810F4702F03D001252846BDE8F5
:100CE000F08794F8240001280CD0012084F8240017
:100CF0002046FFF7A7FD05004FF0000004D084F860
:100D00002400EBE70220EAE7A16A40F60162914382
:100D100041F48071A1622168B94218D1326812F49D
:100D2000702F14D0A16A41F48011A1623168490585
:100D300005D5A16A21F4005141F48051A162A16A54
:100D4000C9040AD5E16A21F00601E16206E0A26A5F
:100D500022F48012A2624968E9E7E06284F8240084
:100D6000216A15488862216A1448C862216A1448B9
:100D7000086321686FF0020008602068816841F410
:100D800080718160216843464A464C31206A00F0F8
:100D900061F920688168C1F342410729816803D065
:100DA00041F48011816099E741F4A001FAE7000065
:100DB0000024014000280140D30700083B08000838
:100DC0002108000810B590F821100022022905D052
:100DD0000421816380F82020012010BD01680B6888
:100DE00023F00E030B6001680B6823F001030B6016
:100DF00090F84030C46B012101FA03F3636080F87E
:100E0000211080F82020104610BD000010B590F889
:100E100021100024022903D00421816301243DE034
:100E200001680A6822F00E020A6001680A6822F06E
:100E300001020A601A4A0168914201D1012121E0B0
:100E4000174A1432914201D110211BE0144A283272
:100E5000914201D1891515E0114A3C32914201D1EC
:100E600089140FE00E4A5032914202D14FF4803182
:100E700008E00B4A6432914202D14FF4801101E044
:100E80004FF08071064A083A5160012180F8211024
:100E9000002180F82010416B01B18847204610BD29
:100EA000080002402DE9F05FC16B0C6801680B6817
:100EB000D0F840C0042202FA0CF2494DDFF824A118
:100EC000494E4A4FDFF828B1DFF828E122422CD002
:100ED0005A072AD50A68920603D40A6822F0040247
:100EE0000A600168A94201D1042219E0514501D1EB
:100EF000402215E0B14202D14FF4806210E0B942C5
:100F000002D14FF480420BE0594502D14FF48022C8
:100F100006E0714502D14FF4800201E04FF080629B
:100F20002F4908394A60C16A3BE04FF0020808FACD
:100F30000CF818EA040F4FF000094FF0010235D009
:100F40005FEA837832D50B689B0605D40B6823F0E3
:100F50000A030B6080F821200168A94201D1022216
:100F600019E0514501D1202215E0B14202D14FF4E0
:100F7000007210E0B94202D14FF400520BE0594523
:100F800002D14FF4003206E0714502D14FF4001255
:100F900001E04FF00072124908394A6080F8209051
:100FA000816A00291AD0BDE8F05F0847082505FAD4
:100FB0000CF5254212D01B0710D50B6823F00E0349
:100FC0000B6090F84010C36B02FA01F15960826324
:100FD00080F8212080F82090016BE2E7BDE8F09FC7
:100FE000080002401C000240300002404400024061
:100FF000580002406C00024030B528B308C81349BD
:1010000014221944B1FBF2F18900C16310498163D4
:10101000022141771A6843F6F0718A43D0E900143F
:101020002143D0E902452C4321430469214344690B
:101030002143846921431143196000214163012246
:1010400042770177084630BD012030BDF8FFFDBF73
:101050000000024070B5044690F8200000250128E9
:101060000CD0012084F8200094F821600020012E8B
:1010700006D084F820000225284670BD022070BDED
:10108000022684F82160A0632068066826F0010625
:1010900006602046FFF722FCE06A0028206801680D
:1010A00002D041F00E0106E021F004010160206849
:1010B000016841F00A0101602068016841F0010106
:1010C0000160D9E770B5044600F008F90546601CD8
:1010D00002D004480078044400F000F9401BA0420C
:1010E000FAD370BD0C0000202DE9F84FDFF8B8915D
:1010F000002409F1040A0AF1040B23460F270BF11F
:10110000040EC9E00125A5402A40AA427DD1674EC0
:10111000D1F804C0ACEB0608B44532D014DCBCF105
:10112000030F3AD009DCBCF1000F2AD0BCF1010F4B
:101130001CD0BCF1020F31D11DE0BCF1110F17D052
:10114000BCF1120F2AD119E0B8F5881F19D006DCBE
:10115000B8F5803F15D0B8F5801F1FD111E0B8F564
:10116000001F0ED0B8F5041F18D10AE0CB6815E0B7
:10117000CB681B1D12E0CB6808330FE0CB680C3343
:101180000CE08B682BB1012B4FF0080303D04561B5
:1011900004E0042302E0056100E00023FF2A01D8F7
:1011A000064601E000F104064FEA840501D9A5F1E5
:1011B0002005D6F8008007FA05FC28EA0C0803FA97
:1011C00005F548EA0508C6F800804D68ED0062D5CF
:1011D000374DAE6946F00106AE61AD6924F00306F5
:1011E00005F001050095334D06EB050CDCF80850C1
:1011F000A607360F07FA06F825EA0805DFF8B880D3
:10120000404503D14FF0000817E044E0DFF8AC8020
:10121000404502D14FF001080FE0DFF8A4804045BF
:1012200002D14FF0020808E0DFF89880404502D173
:101230004FF0030801E04FF0040808FA06F848EA06
:101240000508CCF808804D68D9F80060ED034D46DC
:1012500001D5164300E096432E604D68DAF8006031
:10126000AD03554601D5164300E096432E604D6808
:10127000DBF80060ED025D4601D5164300E09643C1
:101280002E604D68DEF80060AD02754601D516434C
:1012900000E096432E60641C0D682A46E5407FF40A
:1012A00031AFBDE8F88F00000004014000001110CC
:1012B000001002400000014000080140000C014005
:1012C00000100140001401408068084000D0012057
:1012D00070470AB1016170470904FBE70148806863
:1012E000704700000C000020024881680278114419
:1012F000816070470C000020074810B5016841F07C
:1013000010010160032000F075F8002000F006F8DD
:1013100000F024F8002010BD0020024070B50D4DF3
:1013200004464FF47A712878B1FBF0F00A49096855
:10133000B1FBF0F000F0A9FC48B9102C07D2002254
:101340002146501E00F036F800206C6070BD012070
:1013500070BD00000C000020180000200C4808B5EB
:10136000816941F001018161816901F00101009110
:10137000C16941F08051C161C06900F080500090A6
:101380000448416821F0E06141F00071416008BD0E
:101390000010024000000140002809DB00F01F029D
:1013A000012191404009800000F1E020C0F80011C7
:1013B00070470000F0B40E4B1B680C46C3F30223C9
:1013C000C3F10705042D00D90425191D072901D2F1
:1013D000002300E0DB1E012606FA05F1491E21402C
:1013E00099409E40761E16403143F0BC01F013BE7A
:1013F0000CED00E0064900F0070208684FF6FF0315
:10140000184040EA0220034A104308607047000079
:101410000CED00E00000FA052DE9F84305460078E0
:10142000354CC00754D0E0690026C00008D4E069FC
:1014300040F08050E061E069012600F080500090AB
:101440002E480168C90512D40168804641F48071B4
:101450000160FFF743FF074605E000BFFFF73EFFCF
:10146000C01B642823D8D8F80000C005F6D5206A30
:1014700010F4407021D0A98801F4407181421CD041
:10148000206A1F49012220F440700A6000220A608D
:101490002062C00711D0FFF721FF074641F28838CC
:1014A00008E000BFFFF71AFFC11B414502D9032026
:1014B000BDE8F883206A8007F4D5206A696820F4C3
:1014C0004070084320621EB1E06920F08050E06166
:1014D0002878800705D56068A96820F44040084353
:1014E00060602878C00605D56068E96820F480004F
:1014F000084360600020DBE70010024000700040FD
:10150000400442422DE9F0470F46050061D0434EAA
:10151000306800F00700B84209D2306820F00700B8
:1015200038433060306800F00700B84251D1286875
:101530003B4C810712D5400703D5606840F4E0605A
:1015400060602878000703D5606840F460506060F0
:101550006068A96820F0F000084360602878C00740
:1015600028D06868012810D02168022810D0890787
:1015700000292EDA616821F0030101436160FFF761
:10158000ADFE804641F288390DE021688903EFE71E
:101590008901EDE7FFF7A2FEA0EB0801494502D95A
:1015A0000320BDE8F0876068696800F00C00B0EBCC
:1015B000810FEFD1306800F00700B8420BD93068D6
:1015C00020F0070038433060306800F00700B84270
:1015D00001D00120E5E72878400705D56068E96873
:1015E00020F4E060084360602878000706D5606852
:1015F000296920F4605040EAC100606000F038F8CA
:101600006168084AC1F30311515CC840064908608B
:1016100006480068FFF782FE0020C2E70020024073
:1016200000100240243D0008180000201000002097
:101630000448054900684968044AC1F30221515C25
:10164000C84070471800002000100240343D0008D8
:101650000448054900684968044AC1F3C221515C45
:10166000C84070471800002000100240343D0008B8
:1016700012A185B00FC98DE80F0014A0144A0068AC
:1016800004905168134801F00C03042B10D0082B70
:101690000ED1C1F38343C9031DF803000AD5516875
:1016A00004AAC1F34041515C0A4A5043B0FBF1F037
:1016B00005B0704708494843FAE7000002030405F3
:1016C000060708090A0B0C0D0E0F1010010200008E
:1016D0000010024000127A0000093D002DE9F84F89
:1016E000040070D02078C04DC00749D06868C0F3AE
:1016F0008100012807D06868C0F38100022809D161
:101700006868C00306D52868800339D5606800285A
:10171000E7D035E06068B0F5803F0BD010B1B0F590
:10172000A02F11D0286820F480302860286820F489
:10173000802002E0286840F480302860606890B122
:10174000FFF7CCFD06460AE0286840F480202860B8
:10175000F0E700BFFFF7C2FD801B642873D828683C
:101760008003F7D50CE0FFF7B9FD064605E000BFA2
:10177000FFF7B4FD801B6428F0D828688003F7D4F5
:1017800020789A4E80074FF001094FF0000839D5B4
:10179000686810F00C0F07D06868C0F38100022859
:1017A00009D16868C00306D42868800714D5206969
:1017B000012808D110E02069B0B1C6F80090FFF709
:1017C0008DFD074605E00AE1FFF788FDC01B0228F2
:1017D000C4D828688007F7D52868616920F0F80028
:1017E00040EAC10028600DE0C6F80080FFF776FDF2
:1017F000074604E0FFF772FDC01B022823D82868C3
:101800008007F7D4207800072CD57948A169D9B191
:10181000C0F80090FFF762FD074604E0FFF75EFDA9
:10182000C01B02280FD8686A8007F7D571484FF4AB
:10183000FA510068B0FBF1F0009000BF0098411E23
:101840000091FAD20EE080E0C0F80080FFF746FD7C
:10185000074604E0FFF742FDC01B022875D8686AFE
:101860008007F7D42078400760D5E8690027C000DA
:1018700008D4E86940F08050E861E869012700F089
:10188000805000905C480168C90513D40168834604
:1018900041F480710160FFF721FD824606E000BF40
:1018A000FFF71CFDA0EB0A0064284ED8DBF800000F
:1018B000C005F5D5E06801280AD008B1052813D085
:1018C000286A20F001002862286A20F0040002E063
:1018D000286A40F001002862E06841F2883B98B134
:1018E000FFF7FCFC82460BE0286A40F00400286207
:1018F000EEE700BFFFF7F2FCA0EB0A0159455AD80A
:10190000286A8007F6D50CE0FFF7E8FC824605E080
:10191000FFF7E4FCA0EB0A0159454CD8286A800780
:10192000F6D41FB1E86920F08050E861E06988B31F
:101930006968C1F38101022944D00228C6F8608099
:1019400004D0FFF7CBFC044638E034E0FFF7C6FCD8
:10195000074604E0FFF7C2FCC01B02282BD828680A
:101960008001F7D4206AB0F5803F05D16868A1688E
:1019700020F4003008436860D4E90801084369682E
:1019800021F4741108436860C6F86090FFF7A6FC64
:10199000044606E025E000BFFFF7A0FC001B02287C
:1019A00009D828688001F7D51BE000BFFFF796FC37
:1019B000001B022802D90320BDE8F88F28688001A7
:1019C000F4D40EE00128F7D06868226A00F4803170
:1019D000914204D1616A00F47010884201D0012064
:1019E000EAE70020E8E70000001002400000424261
:1019F00080044242180000200070004070B50400CE
:101A000009D0606A002540B125616561A56294F83E
:101A1000510040B10CE0012070BD6068B0F5827FDC
:101A2000F4D0E561F2E784F85050204600F040F829
:101A3000022084F851002068016821F04001016013
:101A4000A088218900F4827001F404410843A1892F
:101A500001F400610843217C01F002010843217D6B
:101A600001F001010843218B01F400710843217F3B
:101A700001F03801084394F8201001F08001084378
:101A8000218D01F40051084321680860A0690421F8
:101A900001EA1040216848602068C16921F40061B2
:101AA000C1616565012084F85100002070BD00000F
:101AB00030B585B00024009401940294039400682A
:101AC0001549884225D11548C16941F48041C16159
:101AD000C16901F480410491816941F0080181618B
:101AE00080690F4D00F0080004904FF420400090F2
:101AF000022001900320039069462846FFF7F4FA7C
:101B00004FF48040CDE90004694628460294FFF76F
:101B1000EBFA05B030BD0000003800400010024074
:101B2000000C01402DE9F84F044690F850000027C2
:101B30001D461646894601280DD04FF0010B84F84A
:101B400050B0FFF7CBFB804694F85100BA4601280D
:101B500004D0022793E00220BDE8F88FB9F1000F0E
:101B600073D0002E71D0032084F85100C4F854A023
:101B7000C4F83090A686E686C4F838A0A4F83CA045
:101B8000A4F83EA0C4F844A0C4F840A0A068B0F5F2
:101B9000004F09D12068016821F0400101602068F0
:101BA000016841F48041016020680168490603D45E
:101BB000016841F040010160E068B0F5006F6068C5
:101BC00003D030B3012E24D041E008B1012E1CD146
:101BD000206B21680088C86006E02068816889075A
:101BE00009D5216B0988C160206B801C2063E08EC1
:101BF000401EE08609E0FFF771FBA0EB0800A84259
:101C000002D3681C01D031E07DB3E08E0028E4D11E
:101C100020E0206B21680078087306E02068816866
:101C2000890709D5216B09780173206B401C20635B
:101C3000E08E401EE0860AE0FFF750FBA0EB0800B4
:101C4000A84203D3681C02D010E017E06DB1E08E0B
:101C50000028E3D142462946204600F096FF08B10D
:101C600020206065A06818B106E0FFE7032706E0C2
:101C70002068C16880680090606D00B1012784F819
:101C800051B084F850A0384666E710B5401EB0F158
:101C9000807F01D3012010BD4FF0E02460610F214F
:101CA000601701F0B8F90020A06107202061002032
:101CB00010BD70477047000070B590F83C20012AB5
:101CC00026D0012480F83C40022280F83D200368A1
:101CD0005A689D6822F070060A6832435A600D4BBC
:101CE00002689A4208D0B2F1804F05D00A4B9A425E
:101CF00002D00A4B9A4204D1496825F08003194367
:101D0000916080F83D40002180F83C10084670BD8D
:101D1000022070BD002C014000040040000800407B
:101D200010B5040003D094F83D0010B107E0012085
:101D300010BD002084F83C00204600F01FF802206F
:101D400084F83D00211D206800F0D2FF012084F8B6
:101D5000460084F83E0084F83F0084F8400084F890
:101D6000410084F8420084F8430084F8440084F879
:101D7000450084F83D00002010BD000008B5006853
:101D8000B0F1804F12D10A48C16941F00101C1612F
:101D9000C069002200F00100009011461C20FFF7EE
:101DA00009FBBDE808401C20FFF7F6BA08BD00009B
:101DB0000010024090F83D10012901D00120704729
:101DC000022180F83D100168CA6842F00102CA6031
:101DD00000680B49884208D0B0F1804F05D009490E
:101DE000884202D00849884204D1816801F0070185
:101DF000062903D0016841F001010160002070470D
:101E0000002C0140000400400008004070B504466A
:101E100090F83C00012817D0012584F83C5002209E
:101E200084F83D002068826822F0770222F47F4225
:101E300082600868502830D00DDC20284DD005DCA9
:101E400098B310283BD148E0022070BD302844D020
:101E5000402834D139E0602828D0702806D0B0F569
:101E6000805F2CD0B0F5005F29D10AE0CB68D1E9C2
:101E70000121206800F072FF2068816841F077013D
:101E800009E0CB68D1E90121206800F067FF2068F4
:101E9000816841F48041816011E0CA684968206826
:101EA00000F06EFF5021206807E016E0CA6849681C
:101EB000206800F076FF6021206800F059FF84F868
:101EC0003D50002084F83C0070BDCA684968206815
:101ED00000F056FF40212068EFE7226801461046D7
:101EE000EBE7704770B50446006801694FF00005E4
:101EF000C943890715D4C168C943890711D4E91EAC
:101F0000016101202077206880698007204602D087
:101F1000FFF7E7FF04E000F098F8204600F096F89D
:101F2000257720680169C943490717D4C168C943A7
:101F3000490713D46FF00401016102202077206863
:101F4000806910F4407F204602D0FFF7CAFF04E00A
:101F500000F07BF8204600F079F8257720680169C9
:101F6000C943090716D4C168C943090712D46FF0E1
:101F700008010161042020772068C069800720469D
:101F800002D0FFF7AEFF04E000F05FF8204600F05B
:101F90005DF8257720680169C943C90617D4C1686F
:101FA000C943C90613D46FF01001016108202077DE
:101FB0002068C06910F4407F204602D0FFF791FFEF
:101FC00004E000F042F8204600F040F82577206851
:101FD0000169C943C90708D1C168C943C90704D108
:101FE000891E0161204600F033F820680169C94369
:101FF000090609D4C168C943090605D46FF08001F8
:1020000001612046FFF755FE20680169C943490672
:1020100009D4C168C943490605D46FF04001016184
:10202000204600F033F820680169C94389060BD4C3
:10203000C168C943890607D46FF0200101612046B9
:10204000BDE87040FFF736BE70BD704770470000B6
:1020500010B50068B0F1804F10D118220849094826
:1020600000F0AAF918B1BDE81040FEF74DBC0649D2
:102070000879401C087102490120C87110BD000098
:102080001C0000206C0100200400002070477047F5
:1020900070470000F8B5026804461068D1685369BB
:1020A00010F00F0F4FF0000553D003F0010601F4BC
:1020B000907737435FD0C20705D0CA0503D5226C9D
:1020C00042F001022264420705D5DA0703D0226CF0
:1020D00042F002022264820705D5DA0703D0226C9F
:1020E00042F004022264020707D501F020023243C5
:1020F00003D0226C42F008022264226C002A34D001
:10210000800604D5880602D5204600F0C6FE206869
:102110004069216CC0F38010090700D430B3204619
:1021200000F09AFE2068416949061BD5416921F0FB
:1021300040014161A06BA8B158494163A06BFEF713
:1021400065FE002811D0A06B416B01B0BDE8F040E6
:10215000084783060FD58B060DD52046BDE8F8400D
:1021600000F09BBE2046FFF793FFF8BD2046FFF727
:102170008FFF2564F8BD266B2023012E52D1C606A1
:1021800050D5CE064ED51068506800905069400674
:102190002AD5A16B086840680004000CEAD0A68D1F
:1021A0008642E7D9E0858869202818D0D06820F4D5
:1021B0008070D0602068416921F001014161206890
:1021C000416921F04001416184F83E302563206877
:1021D000C16821F01001C160A06BFEF7F3FDA08D76
:1021E000E18D401A81B219E0A08DE18D401A81B2D3
:1021F000E08D0028BED00029BCD0D06820F49070BB
:10220000D0602068426922F00102426184F83E30C9
:1022100025632068C26822F01002C2602046FFF7E2
:1022200036FFF8BD05062BD50D0629D594F83D00DF
:102230002128F6D1A068B0F5805F01D12069B0B146
:10224000206A411C2162216800784860E08C401EB1
:102250000004000CE084E4D12068C16821F0800112
:10226000C1602068C16841F04001C160F8BD206ACA
:102270000088C0F308005060206A801C2062E5E7F7
:102280004006F3D54806F1D5D168204621F040013B
:10229000D16084F83D3000F0CFF8F8BDC72D0008BC
:1022A00070B5040004D094F83D00002510B106E09C
:1022B000012070BD84F83C50204600F023F8242013
:1022C00084F83D002068C16821F40051C1602046B7
:1022D00000F03EFE2068016921F490410161206810
:1022E000416921F02A0141612068C16841F400512F
:1022F000C1602564202084F83D0084F83E00002061
:1023000070BD000070B586B00025064600950195A9
:10231000029503950068224988423FD12149886986
:1023200040F480408861886900F4804004908869A6
:1023300040F00400886188691B4C00F004000490A0
:102340004815009002200190032003906946204622
:10235000FEF7CAFE2015CDE9000569462046029524
:10236000FEF7C2FE124C114820601020C4E901059E
:102370008020C4E903056561A5612046E561FEF79B
:102380003BFE08B1FEF7C0FA746300221146252017
:102390006662FFF70FF82520FEF7FEFF06B070BD5E
:1023A0000038014000100240000801404400024093
:1023B000B00100207047000070B5044690F83D0061
:1023C000202830D169B362B394F83C0001282AD0A8
:1023D000012084F83C002162A284E2840025256467
:1023E000212084F83D00636B10489862636B1048AD
:1023F000D862636B0F481863606B134645632668A9
:10240000606B321DFEF726FE21686FF04000086009
:1024100084F83C502068416941F08001416100200E
:1024200070BD012070BD022070BD0000212E00088B
:102430004F2E0008D72D000870477047FEE770B593
:10244000064600219F237F22084600F093F90024CE
:102450000025304600F028F96D1CA02DF9DB641C26
:10246000802CF5DB70BD000070B50D468449854CAD
:102470000122086002212046FEF72BFF0520FEF70F
:1024800021FE002202212046FEF723FF0520FEF751
:1024900019FE012202212046FEF71BFF1420FEF741
:1024A00011FE012000F048F91420FEF70BFE112068
:1024B00000F042F93220FEF705FEB12000F03CF9B1
:1024C000022000F01BF9352000F018F9362000F04A
:1024D00015F9B22000F030F9022000F00FF9352094
:1024E00000F00CF9362000F009F9B32000F024F9CF
:1024F000022000F003F9352000F000F9362000F04A
:10250000FDF8022000F0FAF8352000F0F7F8362048
:1025100000F0F4F8B42000F00FF9032000F0EEF81A
:10252000C02000F009F9A22000F0E8F8022000F035
:10253000E5F8842000F0E2F8C12000F0FDF8C520A5
:1025400000F0DCF8C22000F0F7F80D2000F0D6F81B
:10255000002000F0D3F8C32000F0EEF88D2000F04A
:10256000CDF82A2000F0CAF8C42000F0E5F88D204C
:1025700000F0C4F8EE2000F0C1F8C52000F0DCF84F
:102580000A2000F0BBF8362000F0D6F8C02000F09A
:10259000B5F8E02000F0D0F8122000F0AFF81C20D1
:1025A00000F0ACF8102000F0A9F8182000F0A6F810
:1025B000332000F0A3F82C2000F0A0F8252000F034
:1025C0009DF8282000F09AF8282000F097F827209E
:1025D00000F094F82F2000F091F83C2000F08EF8E5
:1025E000002000F08BF8032000F088F8032000F0B2
:1025F00085F8102000F082F8E12000F09DF812200C
:1026000000F07CF81C2000F079F8102000F076F83B
:10261000182000F073F82D2000F070F8282000F04A
:102620006DF8232000F06AF8282000F067F82820D1
:1026300000F064F8262000F061F82F2000F05EF82A
:102640003B2000F05BF8002000F058F8032000F079
:1026500055F8032000F052F8102000F04FF83A200F
:1026600000F06AF8052000F049F8292000F064F82D
:102670003220FEF727FD2846BDE87040FFF7DFBE99
:1026800000000020000C014001B506484FF6FF7322
:10269000012200686946FFF745FA002801D0FEF7DD
:1026A00033F908BD0000002038B5010A8DF800108C
:1026B0008DF80100012211460D48FEF70AFE0D4D6E
:1026C0004FF48064002221462846FEF702FE0A48A5
:1026D0004FF6FF73022200686946FFF723FA08B13C
:1026E000FEF712F9012221462846FEF7F2FD38BD19
:1026F000000C0140000801400000002070B50646B3
:10270000012211460A48FEF7E4FD0A4D4FF48064A9
:10271000002221462846FEF7DCFD3046FFF7B4FFD5
:1027200021462846BDE870400122FEF7D2BD0000D8
:10273000000C01400008014070B50646002201214E
:102740000A48FEF7C6FD0A4D4FF480640022214678
:102750002846FEF7BEFD3046FFF796FF2146284685
:10276000BDE870400122FEF7B4BD0000000C01403E
:10277000000801402DE9F04104461D4616460F466B
:102780002A20FFF7D9FF0020FFF7B8FF2046FFF708
:10279000B5FF0020FFF7B2FF3046FFF7AFFF2B2059
:1027A000FFF7CAFF0020FFF7A9FF3846FFF7A6FF93
:1027B0000020FFF7A3FF2846FFF7A0FFBDE8F04188
:1027C0002C20FFF7B9BF00002DE9F05F064600F1AD
:1027D000070913488A46002400EB02180AEB04009C
:1027E000C3B2C1B209F0FF02F0B2FFF7C3FF08EBBA
:1027F0000400A0F58050002590F8007E4FF6FF7B86
:10280000F80700D05846FFF74FFF6D1C7F08EDB268
:10281000082DF5D3641CE4B2102CDFD3BDE8F09F83
:10282000343700082DE9F04F89B01546DDE912472D
:102830001E468A468346062F00D90627E8460A2CFC
:1028400000D90A2400200146FDF7B2FE2A4633468D
:102850001AA103D2684600F06DFE04E008F1010001
:1028600000F068FE401CC0B2C01F011B491E384466
:10287000401C4CB247B24FF0200905E008F8079021
:102880007F1C641C7FB264B2002CF7DB00202A4658
:1028900033460146FDF78CFE03D22D2108F80410C3
:1028A00001E008F80490002108F807106A46514634
:1028B000584600F005F809B0BDE8F08F2566000025
:1028C0002DE9F0410024154607468E0007E000BFC1
:1028D00007EBC4003146FFF777FF641CA4B22A5708
:1028E000002AF5D1BDE8F081F8B505466420B2FBB9
:1028F000F0F08DF800000A23B2FBF3F0B0FBF3F424
:1029000003FB14008DF80100B2FBF3F003FB102071
:1029100000248DF802006F468E00385D314630305D
:1029200042B205EBC400FFF74FFF641CE4B2032C76
:10293000F3D3F8BDFEB500252148009501951F4948
:1029400002950160891581600124047305750426D0
:1029500006614FF460214560C161FEF7CDF808B112
:10296000FDF7D2FF0720CDE9000402906946144824
:10297000FDF7CEFF08B1FDF7C7FF0620009002204B
:10298000019069460E48FDF7C3FF08B1FDF7BCFF93
:102990000320CDE9005069460948FDF7B9FF08B1A9
:1029A000FDF7B2FFCDE9004669460548FDF7B0FFE7
:1029B000002801D0FDF7A8FFFEBD00000024014063
:1029C000580000200D4808B5416941F001014161FE
:1029D0004069002200F00100009011460B20FEF734
:1029E000E9FC0B20FEF7D8FC002211460E20FEF772
:1029F000E1FCBDE808400E20FEF7CEBC001002400E
:102A000070B586B000242348009401940294039486
:102A1000816941F020018161816901F02001049107
:102A2000816941F004018161816901F0040104912F
:102A3000816941F0080181618069174E00F008004A
:102A40000490002240F203413046FEF742FC01228E
:102A50004FF470713046FEF73CFC40F2C370012524
:102A6000CDE900050220CDE9024069463046FEF777
:102A70003BFB4FF410408DE8310069460748FEF7F4
:102A800033FB30208DE8310069463046FEF72CFBE1
:102A900006B070BD00100240000C0140000801406B
:102AA0000F4810B50D4901604FF48271416000215B
:102AB0008160C1604FF400720161C0E90512C1611B
:102AC0000162416281620A21C162FEF797FF00281C
:102AD00003D0BDE81040FDF717BF10BD003800401F
:102AE000CC00002010B586B0002417480094019453
:102AF0000294039404944FF080410594016041F6E0
:102B00001F41C0E9011440F2E731C0E903148461B8
:102B1000FFF706F908B1FDF7F7FE4FF4805000907B
:102B200069460948FFF772F908B1FDF7EDFE049414
:102B300004A905480594FFF7BFF8002801D0FDF768
:102B4000E3FE06B010BD0000240100200C4810B5C3
:102B50000A4901604FF416514160002181600C2246
:102B6000C160C0E904128161C161FFF799FB0028CF
:102B700003D0BDE81040FDF7C7BE10BD00380140CE
:102B80006C010020FEE7FEE7704738B50B46009267
:102B900004460022802100F009F8002804D0606D6E
:102BA00040F020006065032038BD00002DE9F843A7
:102BB0001E46914688460446089DFEF78FFB401B43
:102BC000351AFEF78BFB074625480068C0F3CB306B
:102BD000684338E0701C37D0FEF780FBC01BA8426A
:102BE00003D215B1009860B32CE02068416821F051
:102BF000E00141606068B0F5827F0BD1A068B0F55C
:102C0000004F02D0B0F5806F04D12068016821F038
:102C100040010160A06AB0F5005F09D12068016839
:102C200021F4005101602068016841F40051016005
:102C3000012084F85100002084F850000320BDE8F2
:102C4000F8830025401E00902068816838EA010062
:102C500004D000214945BDD10020F0E70121F9E76A
:102C6000180000207047FEF73FBB30B593B0282115
:102C70006846FDF782FA14210AA8FDF77EFA0025BE
:102C800001200F9510951195010412958DE82300F0
:102C900004904FF4E010CDE9081002240794684630
:102CA000FEF71CFD08B172B6FEE70AA90F2081E805
:102CB00031004FF48060CDE90D0502210AA8FEF72E
:102CC00021FC08B172B6FEE74FF4004011900F945A
:102CD0000FA8FEF7A1FB002801D072B6FEE713B0E3
:102CE00030BD70470148FFF7FDB800002401002007
:102CF000F0B50268164B174C174D4FF080479842BD
:102D000005D0B84203D0A04201D0A84203D122F09E
:102D100070064A683243984205D0B84203D0A042B8
:102D200001D0A84203D122F44074CA6822434C69FE
:102D300022F08002224302608A68C2620A688262CC
:102D4000984201D10969016301214161F0BD000090
:102D5000002C0140000400400008004010B58468C9
:102D600042EA032224F47F440A432243826010BDD6
:102D7000826822F070020A4342F0070181607047C6
:102D800010B5036A046A24F001040462846924F023
:102D9000F00444EA021423F00A020A438461026246
:102DA00010BD10B5036A23F0100303628369046A3F
:102DB00023F4704343EA023224F0A00343EA0111F2
:102DC0008261016210BD10B5406A0021C185C184D5
:102DD000FFF75EF910BD70B5446A2068406994F849
:102DE0003D10C0F3C0100025212904D118B1E5849D
:102DF000204600F049F82068406994F83E10C0F37E
:102E00008010222904D118B1E585204600F024F86D
:102E1000206C40F0100020642046FFF739F970BDA7
:102E200010B50146406A0968096889060CD400217A
:102E3000C18401684A6922F080024A610068C16861
:102E400041F04001C16010BDFFF7F6FA10BD10B5AA
:102E5000406AFFF7F2FA10BD0168CA6822F4907266
:102E6000CA6001684A6922F001024A61016B0129C6
:102E700004D10168CA6822F01002CA60202180F8DB
:102E80003E100021016370470168CA6822F0C00249
:102E9000CA60202180F83D10704708B590F83E10B8
:102EA000222901D0022008BD82684FF480539A4243
:102EB00001D1016921B1816A9A421BD04AB10AE06D
:102EC0000268816A5268C2F308020A80816A891C1A
:102ED00008E0026972B10268526802F07F020A706B
:102EE000816A491C8162C18D491E0904090CC18592
:102EF00003D019E002685268F1E70168CA6822F05D
:102F00002002CA600168CA6822F48072CA6001683F
:102F10004A6922F001024A61202180F83E10016BCB
:102F2000012903D0FFF746FA002008BD0021016304
:102F30000168CA6822F01002CA6001680A68D206F5
:102F400002D50A6849680091818DFFF7A0F8EBE788
:102F500070B5044600680169E26821F440511143EC
:102F600001612169A0680843616908432168CA6852
:102F700041F20C639A430243CA6020684169A26926
:102F800021F44071114341611E492068884202D1F9
:102F9000FEF75EFB01E0FEF74BFB00EBC00101EB2F
:102FA0000012606864218000B2FBF0F3B3FBF1F320
:102FB0006FF018067343B2FBF0F5B2FBF0F605EBC9
:102FC0008305322303EB0515B5FBF1F5B6FBF1F6EE
:102FD00005F0F00505EB0615B2FBF0F6B2FBF0F0DC
:102FE000B0FBF1F06FF01802504306EB800003EBEA
:102FF0000010B0FBF1F0216800F00F002844886059
:1030000070BD0000003801400148FFF743B80000E0
:103010006C010020FEE70907090E002804DB00F11F
:10302000E02080F80014704700F00F0000F1E0206D
:1030300080F8141D704702E008C8121F08C1002A5A
:10304000FAD170477047002001E001C1121F002A29
:10305000FBD170477CB532A200210C20FFF730FC79
:1030600033A205210020FFF72BFC33A20A21002008
:10307000FFF726FC32A20F210020FFF721FC32A22D
:1030800014210020FFF71CFC31A219210020FFF7BA
:1030900017FC314E05213C207279FFF725FC2F4D9E
:1030A0002868FDF759FA022402460B4600940A21CB
:1030B0003C200194FFF7B6FB6868FDF74DFA024625
:1030C0000B4600940F213C200194FFF7ABFBA8684E
:1030D000FDF742FA02460B46009414213C2001946D
:1030E000FFF7A0FBE868FDF737FA02460B460094AD
:1030F00019213C200194FFF795FB1948C07901285C
:103100000CD1327923213C20FFF7EEFB02B02321C2
:10311000BDE8704013A20020FFF7D2BB7CBD0000C9
:103120006469795F6A6F79737469636B000000008A
:103130006B65793A000000006A73315F783A0000ED
:103140006A73315F793A00006A73325F783A00003F
:103150006A73325F793A00000400002048000020C2
:103160001C00002049276D204F4B210030B503463D
:1031700000208C240EE000BF13F8012B50400022E9
:10318000C50702D084EA500000E04008521CD2B2C9
:10319000082AF5D3491EC9B2EED230BD2DE9F05F41
:1031A0002F4E40F6863537683846FDF7A0F9DFF830
:1031B000B480DFF8B490DFF8B4A006F110044FF04B
:1031C0007C5BAF4203D84146FDF73AF808E0494638
:1031D000FDF730F85146FDF733F85946FCF7D8FFB4
:1031E000206077683846FDF782F9AF4203D8414640
:1031F000FDF726F808E04946FDF71CF85146FDF7B3
:103200001FF85946FCF7C4FF6060B7683846FDF701
:103210006EF9AF4203D84146FDF712F808E049467F
:10322000FDF708F85146FDF70BF85946FCF7B0FFDB
:10323000A060F6683046FDF75AF9AE4203D8414621
:10324000FCF7FEFF08E04946FCF7F4FF5146FCF7A7
:10325000F7FF5946FCF79CFFE060BDE8F09F0000D7
:10326000380000200060B8450060384500400F4538
:103270001449002009780A1F0D2A20D2DFE802F045
:103280000713151709191B1D0B0F08110D006120DD
:1032900070476220704763207047642070472A207F
:1032A0007047232070470420704705207047062090
:1032B000704707207047082070470920704708466C
:1032C000704700000400002070B51D4D4FF4004110
:1032D0002846FDF7F9FF1B4CC000A914A070284632
:1032E000FDF7F2FFA178184D41EA8000A07010218F
:1032F0002846FDF7E9FFA17841EA4000A0702021AF
:103300002846FDF7E1FFA1780843A0700F280DD0F3
:103310000A20FDF7D7FEA0780F2807D0072807D08E
:103320000B2807D00D2807D00E2807D0002070BD2D
:10333000012070BD022070BD032070BD042070BD4F
:103340000008014004000020000C014070B5334D1E
:10335000002240212846FDF7BCFFFFF7B5FF304CA7
:10336000607040B1FFF7B0FF0028FBD16078FD210D
:1033700001EB80002070012240212846FDF7A9FFC3
:10338000002280212846FDF7A4FFFFF79DFF607013
:1033900048B100BFFFF798FF0028FBD16078FE21FD
:1033A00001EB80002070012280212846FDF791FF6B
:1033B0004FF48076002231462846FDF78AFFFFF75A
:1033C00083FF607048B100BFFFF77EFF0028FBD18C
:1033D0006078FF2101EB80002070012231462846F1
:1033E000FDF777FF4FF40076002231462846FDF7BF
:1033F00070FFFFF769FF607038B100BFFFF764FF2F
:103400000028FBD1607880002070012231462846D8
:10341000FDF75FFFFFF72CFFE07070BD000C01406F
:1034200004000020FDF768FFFFF71FFCFFF7E8FA34
:10343000FFF7C8FAFFF78AFBFFF77CFAFFF730FBCC
:10344000FFF750FB0848FEF7B5FC00F047F8074CC3
:10345000FFF7A4FEFFF77AFF2070FFF7FBFD0120C6
:10346000FDF730FEF4E700002401002009000020F1
:1034700010B500247AB1002800DA404290FBF3F244
:1034800003FB120290FBF3F03032641C0A70E4B2CA
:1034900098B1491CF2E7B0FBF3F203FB1202D2B27F
:1034A0000A2A01D3373200E03032B0FBF3F0641C5B
:1034B0000A70E4B208B1491CEDE7204610BD30B5F2
:1034C000002207E08B1A1C18855C14F8013D25705A
:1034D0008354521CB2EB510FF4D330BD10B5104CD5
:1034E000FF200121E07055202071002020706170C4
:1034F0001421A17018216171E0712046FFF736FE9A
:10350000A0714FF4FC610748FEF7AEFF0648FEF7D6
:1035100051FCBDE81040042204490548FDF7CCBB2E
:103520001C000020CC0000202401002038000020D6
:10353000580000200FB42DE9F04F8FB0054600264B
:103540001AAC4FF030090DF108082DE0252825D1DF
:10355000491C19910878662848D00EDC612820D0D3
:1035600006DC25281AD0462840D0582819D1B6E0C4
:10357000632811D0642814D120E073287CD006DCA5
:1035800069281BD06F2878D070280AD1C4E075282C
:1035900074D0782805D1A2E014F8040B05F8010BCB
:1035A000761C1998401C1990199908780028CDD1DB
:1035B0000FB03046BDE8F00F5DF814FB54F804ABD3
:1035C0000A23012201A95046FFF752FF0746BAF12C
:1035D000000F04DA01A92D20C8557F1CFFB239461F
:1035E00001A8FFF76CFF3A4601A985E0E41D24F02D
:1035F0000704F4E8020182468B46FCF78EFF0A239B
:10360000012202A90E90FFF733FF0746002213465E
:1036100050465946FCF7B4FF04D22D2008F80700A5
:103620007F1CFFB2394602A8FFF749FF3A4602A9BC
:103630002846FCF789FDF01900903D440E98FCF7F0
:103640005BFF52465B46FCF7DDFE0022384BFCF781
:10365000DCFE002206460F461346FCF791FF0ED013
:1036600030463946FCF759FF0A23012202A9FFF729
:10367000FFFE4946424613E044E027E023E08DF890
:103680000B908DF80A908DF80D908DF809908DF8BB
:103690000C908DF80890062004E01154401CC0B234
:1036A0000628FAD32E2208F80020401CC6B2314664
:1036B00002A8FFF704FF324602A92846FCF744FDA2
:1036C000009806446DE701CC0A230AE001CC0823E8
:1036D000002201A9FFF7CCFE0746014680E701CC96
:1036E0001023002202A9FFF7C3FE0746014602A8E5
:1036F000FFF7E5FE3A4602A92846FCF725FD3D44C2
:103700003E444EE701CC03E0401C05F8011B761C4B
:1037100001780029F8D144E7082101A8FFF7CFFE7E
:10372000019845F8040B029845F8040B083638E771
:1037300080842E4100000000000000000000000016
:103740000000000000000008080808080808000041
:1037500008080000004824241200000000000000B7
:10376000000000000000004848487E2424247E24F5
:10377000242400000000103C5252121C30505052C1
:10378000523C1010000000222515150D2A585454E3
:10379000522200000000000C1212120A762529198C
:1037A000916E00000006040402000000000000000A
:1037B0000000000000402010100808080808081049
:1037C000102040000002040808101010101010080B
:1037D000080402000000000008086B1C1C6B0808AD
:1037E000000000000000000000101010FE1010107B
:1037F00000000000000000000000000000000000C9
:103800000604040200000000000000007E0000002A
:1038100000000000000000000000000000000000A8
:1038200006060000000040202020101008080804B0
:103830000402020000000018244242424242424276
:1038400024180000000000101C10101010101010A0
:10385000107C00000000003C42424240201008045E
:10386000427E00000000003C4242402018204042BE
:10387000423C000000000020303028242422FE209A
:1038800020F800000000007E0202021E224040429A
:10389000221C0000000000182402023A4642424264
:1038A000443800000000007E422020101008080864
:1038B000080800000000003C424242241824424212
:1038C000423C00000000001C22424242625C404038
:1038D000241800000000000000001818000000007C
:1038E00018180000000000000000000800000000A0
:1038F0000008080800000040201008040204081016
:10390000204000000000000000007E00007E00005B
:1039100000000000000000020408102040201008F1
:10392000040200000000003C42424620101010003B
:10393000181800000000001C225A55555555553ADC
:10394000423C00000000000808181414243C2242E5
:1039500042E700000000001F2222221E22424242B3
:10396000221F00000000007C4242010101010142CF
:10397000221C00000000001F2242424242424242FA
:10398000221F00000000003F4212121E12120242CB
:10399000423F00000000003F4212121E12120202BB
:1039A000020700000000003C2222010101712122D7
:1039B000221C0000000000E7424242427E42424296
:1039C00042E700000000003E080808080808080850
:1039D000083E00000000007C1010101010101010A5
:1039E0001010110F0000007722120A0E0A12122284
:1039F0002277000000000007020202020202020217
:103A0000427F00000000007736363636362A2A2AF2
:103A10002A6B0000000000E346464A4A52525262B6
:103A2000624700000000001C2241414141414141E8
:103A3000221C00000000003F424242423E020202BD
:103A4000020700000000001C224141414141414D5C
:103A5000321C60000000003F4242423E121222220D
:103A600042C700000000007C42420204182040428D
:103A7000423E00000000007F4908080808080808C6
:103A8000081C0000000000E742424242424242421B
:103A9000423C0000000000E7424222242414141893
:103AA000080800000000006B2A2A2A2A2A3614146B
:103AB00014140000000000E74224241818182424DD
:103AC00042E70000000000772222141408080808CA
:103AD000081C00000000007E212010100804044291
:103AE000423F00000078080808080808080808088D
:103AF00008087800000002040404080808101020D8
:103B000020204040001E1010101010101010101037
:103B100010101E000018240000000000000000002B
:103B20000000000000000000000000000000000095
:103B3000000000FF00060800000000000000000078
:103B400000000000000000000000001C22302C22B9
:103B5000326C0000000000000302021A26424242BA
:103B6000261A000000000000000000384402020293
:103B700044380000000000006040407C4242424265
:103B800062DC0000000000000000003C42427E02B7
:103B9000423C0000000000003048083E08080808C9
:103BA000083E0000000000000000007C22221C02F1
:103BB0003C42423C000000000302023A46424242BC
:103BC00042E700000000000C0C00000E0808080886
:103BD000083E000000000030300000382020202087
:103BE0002020221E0000000003020272120A0E12A0
:103BF00022770000000000080E08080808080808DE
:103C0000083E0000000000000000007F92929292A7
:103C100092B70000000000000000003B4642424214
:103C200042E70000000000000000003C4242424227
:103C3000423C0000000000000000001B26424242FF
:103C4000261A0207000000000000005864424242A9
:103C5000645840E000000000000000774C040404B9
:103C6000041F0000000000000000007C42023C40F5
:103C7000423E0000000000000008083E0808080856
:103C80004830000000000000000000634242424251
:103C900062DC000000000000000000772222141403
:103CA0000808000000000000000000DB91525A2AC2
:103CB00024240000000000000000006E24181818E2
:103CC0002476000000000000000000E742242418D1
:103CD00018080806000000000000007E22100808F6
:103CE000447E000000C02020202020201020202022
:103CF0002020C00010101010101010101010101004
:103D00001010101000030404040404040804040444
:103D100004040300045A200000000000000000001A
:103D20000000000000000000000000000102030489
:103D30000607080900000000010203045C3D0008BA
:103D4000000000201C00000036300008783D00080C
:103D50001C000020DC0500004630000800000000C8
:103D60000000FF0000000000010000001000000043
:083D7000000000000024F40033
:04000005080000ED02
:00000001FF
