:020000040800F2
:10000000201A002021020008F32800085D210008C2
:10001000F128000869050008D92D0008000000003B
:10002000000000000000000000000000890100083E
:10003000AF05000800000000CD010008F529000808
:100040003B0200083B0200083B0200083B0200089C
:100050003B0200083B0200083B0200083B0200088C
:100060003B0200083B0200083B0200086D05000847
:100070003B0200083B020008790500083B0200082B
:100080003B0200083B020008190400083B0200087C
:100090003B0200083B0200083B0200083B0200084C
:1000A0003B0200083B0200083B0200083B0200083C
:1000B0009D2A00083B020008A92A00083B0200080C
:1000C0003B0200083B0200083B0200083B0200081C
:1000D0003B020008CD2D00083B0200083B0200084F
:1000E0003B0200083B0200083B02000800F002F857
:1000F00000F03AF80AA090E8000C82448344AAF188
:100100000107DA4501D100F02FF8AFF2090EBAE885
:100110000F0013F0010F18BFFB1A43F0010318473B
:10012000A0510000C0510000103A24BF78C878C127
:10013000FAD8520724BF30C830C144BF04680C60ED
:10014000704700000023002400250026103A28BF35
:1001500078C1FBD8520728BF30C148BF0B60704739
:100160001FB51FBD10B510BD00F01BF91146FFF7FC
:10017000F7FF03F087F800F039F903B4FFF7F2FF57
:1001800003BC00F041F90000224B19680868B0E890
:10019000F00F80F30988BFF36F8F4FF0000080F3FA
:1001A00011884EF00D0E70470000000006480068F0
:1001B000006880F3088862B661B6BFF34F8FBFF363
:1001C0006F8F00DF00BF00BF08ED00E0EFF3098094
:1001D000BFF36F8F0F4B1A6820E9F00F106008B55E
:1001E0004FF0500080F31188BFF34F8FBFF36F8F34
:1001F00003F03CFC4FF0000080F31188BDE808409C
:1002000019680868B0E8F00F80F30988BFF36F8FB2
:10021000704700BF24000020EFF305807047000006
:100220000948804709480047FEE7FEE7FEE7FEE78A
:10023000FEE7FEE7FEE7FEE7FEE7FEE704480549C6
:10024000054A064B70470000992A0008ED00000897
:1002500020140020201A0020201600202016002044
:10026000032A40F2308010F0030C00F0158011F8E2
:10027000013BBCF1020F624498BF11F801CB00F8BA
:10028000013B38BF11F8013BA2F1040298BF00F80E
:1002900001CB38BF00F8013B11F0030300F02580CB
:1002A000083AC0F0088051F8043B083A51F804CBF2
:1002B000A0E80810F5E7121D5CBF51F8043B40F8B8
:1002C000043BAFF30080D20724BF11F8013B11F8C3
:1002D00001CB48BF11F8012B24BF00F8013B00F807
:1002E00001CB48BF00F8012B704710B5203AC0F091
:1002F0000B80B1E81850203AA0E81850B1E8185027
:10030000A0E81850BFF4F5AF5FEA027C24BFB1E863
:100310001850A0E8185044BF18C918C0BDE81040D4
:100320005FEA827C24BF51F8043B40F8043B08BFDD
:100330007047D20728BF31F8023B48BF11F8012BA4
:1003400028BF20F8023B48BF00F8012B70474FF050
:10035000000200B5134694469646203922BFA0E815
:100360000C50A0E80C50B1F12001BFF4F7AF090721
:1003700028BFA0E80C5048BF0CC05DF804EB890012
:1003800028BF40F8042B08BF704748BF20F8022B55
:1003900011F0804F18BF00F8012B7047704770476D
:1003A0007047754600F02CF8AE4605006946534686
:1003B00020F00700854618B020B5FFF73FFFBDE8E5
:1003C00020404FF000064FF000074FF000084FF0BC
:1003D000000B21F00701AC46ACE8C009ACE8C0094D
:1003E000ACE8C009ACE8C0098D46704710B50446BA
:1003F000AFF300802046BDE81040FFF7BEBE00000E
:1004000000487047BC13002001491820ABBEFEE72E
:100410002600020070470000014800F04EB90000BD
:10042000E804002070B5044600688168C943C90724
:1004300017D1816821F00101816000F0A3FD05461C
:100440000AE000BF00F09EFD401B022804D920688E
:100450008068C043C00706D020688068C043C007DA
:10046000F0D0002070BDA06A40F01000A062E06AE9
:1004700040F00100E062012070BD10B50146406A05
:10048000826A12F0500F05D0006A026BBDE810407E
:1004900008461047816A41F40071816201688968E9
:1004A000C1F3424107290CD1017B51B9816A21F482
:1004B00080718162816AC90403D4816A41F00101BB
:1004C000816200F0F7F810BD10B5406A816A41F012
:1004D00040018162C16A41F00401C16200F0ECF8A0
:1004E00010BD10B5406A00F0E6F810BDF8B5002662
:1004F0000446009600688168C943C9072DD0816809
:1005000041F001018160164816490068B0FBF1F026
:1005100000E0401E00900028FBD100F033FD0546AE
:1005200016E000BF00F02EFD401B022810D9206805
:100530008068C043C0070BD0A06A40F01000A062E2
:10054000E06A40F00100E06284F824600120F8BD18
:1005500020688068C043C007E4D10020F8BD0000D7
:100560002000002040420F00FEE70000014800F09C
:10057000EDBA000018050020014800F0E7BA0000BD
:100580004006002030B590F840500124AC40C56BC7
:100590006C60046863604368102B036803D0996043
:1005A0000068C26030BD9A600068C16030BD7047AD
:1005B00072B6FEE770470000F8B50024009490F88A
:1005C00024202546012A12D0012280F824204A68DE
:1005D0001F23072A0DD20668776B521E02EB820298
:1005E00093409F430B6893401F43776319E00220B9
:1005F000F8BD06680D2A0AD2376BD21F02EB8202C1
:1006000093409F430B6893401F43376309E0F76AA9
:100610000D3A02EB820293409F430B6893401F43C5
:10062000F7620A68072306680A2A0AD3F7680A3AB3
:1006300002EB420293409F438B6893401F43F76055
:1006400008E0376902EB420293409F438B68934076
:100650001F4337610A68102A01D0112A20D1124B9A
:1006600002689A4217D193681B0219D4936843F425
:10067000000393600968102912D10C490C4A0968DB
:10068000B1FBF2F101EB8101490000E0491E00914C
:100690000029FBD104E0816A41F02001816201243C
:1006A00080F824502046F8BD00240140200000209E
:1006B00040420F0070477047704710B5044600680D
:1006C0004168890626D50168890723D5A16AC9062C
:1006D00003D4A16A41F40071A1628168C1F342416F
:1006E000072910D1217B71B9416821F020014160B7
:1006F000A06A20F48070A062A06AC00403D4A06A3B
:1007000040F00100A0622046FFF7D4FF21686FF09F
:10071000120008602068416809062ED50168490763
:100720002BD5A16AC90603D4A16A41F40051A16284
:100730008168C1F30231072909D04168490515D400
:100740008168C1F34241072910D1217B71B9416809
:1007500021F080014160A06A20F48050A062A06A6C
:10076000C00503D4A06A40F00100A0622046FFF754
:1007700021FF21686FF00C0008602068416849067D
:100780000DD50068C0070AD0A06A40F48030A0628E
:10079000204600F093F821686FF00100086010BD5A
:1007A0002DE9F0414FF0000704003D467ED0A06ADD
:1007B000002628B9E66284F82460204600F080F81C
:1007C0002046FFF72FFEA16AC90600D420B1A06A17
:1007D00040F01000A06269E0A16A21F4885141F064
:1007E0000201A1626268E169237B0A4347EA43018F
:1007F0000A43A1684FF48077B94209D0012907D094
:100800005FF0000194F814C0BCF1010F02D00AE0BF
:100810003946F7E7F3B1A36A43F02003A362E36A22
:1008200043F00103E3622368D3F804C02CF4694C5D
:100830004CEA010CC3F804C021688B68DFF870C073
:1008400003EA0C0313438B60A168B9420BD0012962
:1008500009D00CE0DFF85CC0A3690CEB43330B4319
:1008600043F40061DFE7218A0D05A5F580152168B5
:10087000CB6A23F470032B43CB62216889680E4B4B
:100880001940914208D1E662A16A21F0020141F0CB
:100890000101A162BDE8F081A06A20F0020040F0F1
:1008A0001000A062E06A40F00100E0620120F1E780
:1008B000FDF7E1FF00E0FFFFFE0E1FFF70470000A5
:1008C00070B586B000250646009501950295039502
:1008D00000681E49884236D11D49886940F400707D
:1008E0008861886900F400700490886940F0040011
:1008F00088618869694600F004000490C320009074
:1009000003200190134800F043FA144C1248C4E944
:1009100000058020C4E902508000206180006061F1
:100920002020C4E90605204600F0BAF908B1FFF717
:100930003FFE3462002205211220666200F0AEFB09
:10094000122000F09DFB06B070BD000000240140A5
:100950000010024000080140080002401805002075
:100960002DE9F047894604463B4900683B4F0E1D80
:100970009046884201D0B84207D1306810F4702FF9
:1009800003D001252846BDE8F08794F8240001280B
:100990000CD0012084F824002046FFF7A7FD0500B5
:1009A0004FF0000004D084F82400EBE70220EAE7CF
:1009B000A16A40F60162914341F48071A16221680D
:1009C000B94218D1326812F4702F14D0A16A41F4E0
:1009D0008011A1623168490505D5A16A21F4005151
:1009E00041F48051A162A16AC9040AD5E16A21F0EB
:1009F0000601E16206E0A26A22F48012A26249685E
:100A0000E9E7E06284F82400216A15488862216AD7
:100A10001448C862216A1448086321686FF0020014
:100A200008602068816841F48071816021684346D4
:100A30004A464C31206A00F061F920688168C1F3B0
:100A400042410729816803D041F48011816099E710
:100A500041F4A001FAE70000002401400028014011
:100A60007B040008E3040008C904000810B590F8EE
:100A700021100022022905D00421816380F8202062
:100A8000012010BD01680B6823F00E030B600168A4
:100A90000B6823F001030B6090F84030C46B012118
:100AA00001FA03F3636080F8211080F820201046DB
:100AB00010BD000010B590F821100024022903D0C9
:100AC0000421816301243DE001680A6822F00E02DE
:100AD0000A6001680A6822F001020A601A4A016885
:100AE000914201D1012121E0174A1432914201D1F2
:100AF00010211BE0144A2832914201D1891515E0DA
:100B0000114A3C32914201D189140FE00E4A503211
:100B1000914202D14FF4803108E00B4A6432914295
:100B200002D14FF4801101E04FF08071064A083A7B
:100B30005160012180F82110002180F82010416BC4
:100B400001B18847204610BD080002402DE9F05F42
:100B5000C16B0C6801680B68D0F840C0042202FA2F
:100B60000CF2494DDFF824A1494E4A4FDFF828B175
:100B7000DFF828E122422CD05A072AD50A689206CB
:100B800003D40A6822F004020A600168A94201D174
:100B9000042219E0514501D1402215E0B14202D1B1
:100BA0004FF4806210E0B94202D14FF480420BE072
:100BB000594502D14FF4802206E0714502D14FF42D
:100BC000800201E04FF080622F4908394A60C16A13
:100BD0003BE04FF0020808FA0CF818EA040F4FF057
:100BE00000094FF0010235D05FEA837832D50B68F7
:100BF0009B0605D40B6823F00A030B6080F82120C4
:100C00000168A94201D1022219E0514501D12022F7
:100C100015E0B14202D14FF4007210E0B94202D1A6
:100C20004FF400520BE0594502D14FF4003206E078
:100C3000714502D14FF4001201E04FF000721249E9
:100C400008394A6080F82090816A00291AD0BDE8EE
:100C5000F05F0847082505FA0CF5254212D01B075E
:100C600010D50B6823F00E030B6090F84010C36B97
:100C700002FA01F15960826380F8212080F8209007
:100C8000016BE2E7BDE8F09F080002401C00024053
:100C90003000024044000240580002406C00024014
:100CA00030B528B308C8134914221944B1FBF2F136
:100CB0008900C16310498163022141771A6843F6B4
:100CC000F0718A43D0E900142143D0E902452C4356
:100CD0002143046921434469214384692143114329
:100CE000196000214163012242770177084630BD37
:100CF000012030BDF8FFFDBF0000024070B5044682
:100D000090F82000002501280CD0012084F8200054
:100D100094F821600020012E06D084F820000225DE
:100D2000284670BD022070BD022684F82160A063B1
:100D30002068066826F0010606602046FFF722FCC0
:100D4000E06A00282068016802D041F00E0106E048
:100D500021F0040101602068016841F00A0101608E
:100D60002068016841F001010160D9E770B50446CF
:100D700000F008F90546601C02D0044800780444DD
:100D800000F000F9401BA042FAD370BD140000200F
:100D90002DE9F84FDFF8B891002409F1040A0AF1AF
:100DA000040B23460F270BF1040EC9E00125A540D3
:100DB0002A40AA427DD1674ED1F804C0ACEB0608A8
:100DC000B44532D014DCBCF1030F3AD009DCBCF1DD
:100DD000000F2AD0BCF1010F1CD0BCF1020F31D1A1
:100DE0001DE0BCF1110F17D0BCF1120F2AD119E090
:100DF000B8F5881F19D006DCB8F5803F15D0B8F5D6
:100E0000801F1FD111E0B8F5001F0ED0B8F5041FE8
:100E100018D10AE0CB6815E0CB681B1D12E0CB6847
:100E200008330FE0CB680C330CE08B682BB1012B3F
:100E30004FF0080303D0456104E0042302E005619C
:100E400000E00023FF2A01D8064601E000F1040675
:100E50004FEA840501D9A5F12005D6F8008007FAEC
:100E600005FC28EA0C0803FA05F548EA0508C6F867
:100E700000804D68ED0062D5374DAE6946F0010641
:100E8000AE61AD6924F0030605F001050095334D10
:100E900006EB050CDCF80850A607360F07FA06F833
:100EA00025EA0805DFF8B880404503D14FF0000877
:100EB00017E044E0DFF8AC80404502D14FF0010874
:100EC0000FE0DFF8A480404502D14FF0020808E0AF
:100ED000DFF89880404502D14FF0030801E04FF061
:100EE000040808FA06F848EA0508CCF808804D68B6
:100EF000D9F80060ED034D4601D5164300E0964356
:100F00002E604D68DAF80060AD03554601D51643F2
:100F100000E096432E604D68DBF80060ED025D4610
:100F200001D5164300E096432E604D68DEF8006060
:100F3000AD02754601D5164300E096432E60641C51
:100F40000D682A46E5407FF431AFBDE8F88F000018
:100F50000004014000001110001002400000014098
:100F600000080140000C0140001001400014014045
:100F70008068084000D0012070470AB101617047C5
:100F80000904FBE701488068704700001400002056
:100F90000248816802781144816070471400002083
:100FA000074810B5016841F010010160032000F00E
:100FB00095F80F2000F006F800F03EF8002010BD74
:100FC0000020024000B5014687B000221E2000F03C
:100FD00065F81E2000F054F81348C16941F004017F
:100FE000C161C06905A900F004000690684600F0E0
:100FF00093F900F0B1F90D494000B0FBF1F10D4853
:101000000B4A491E0260416040F2E7320021C0E90C
:101010000321816000F004FD10B1012007B000BD84
:10102000044800F047FDF9E70010024040420F007D
:1010300000080040840600200F4808B5816941F08F
:1010400001018161816901F001010091C16941F0F3
:101050008051C161C069002200F0805000900F21D2
:10106000901E00F01BF80548416821F0E06141F056
:101070000071416008BD0000001002400000014006
:10108000002809DB00F01F02012191404009800087
:1010900000F1E020C0F8001170470000F0B40E4BE2
:1010A0001B680C46C3F30223C3F10705042D00D9C6
:1010B0000425191D072901D2002300E0DB1E0126AB
:1010C00006FA05F1491E214099409E40761E1640C1
:1010D0003143F0BC01F081BE0CED00E0064900F0A8
:1010E000070208684FF6FF03184040EA0220034A4F
:1010F00010430860704700000CED00E00000FA05A6
:101100002DE9F84305460078354CC00754D0E06916
:101110000026C00008D4E06940F08050E061E0693A
:10112000012600F0805000902E480168C90512D4B5
:101130000168804641F480710160FFF723FF074694
:1011400005E000BFFFF71EFFC01B642823D8D8F8B6
:101150000000C005F6D5206A10F4407021D0A9889F
:1011600001F4407181421CD0206A1F49012220F401
:1011700040700A6000220A602062C00711D0FFF7A9
:1011800001FF074641F2883808E000BFFFF7FAFE8A
:10119000C11B414502D90320BDE8F883206A8007BE
:1011A000F4D5206A696820F44070084320621EB1BB
:1011B000E06920F08050E0612878800705D56068FC
:1011C000A96820F44040084360602878C00605D52F
:1011D0006068E96820F48000084360600020DBE775
:1011E0000010024000700040400442422DE9F047E8
:1011F0000F46050061D0434E306800F00700B8424A
:1012000009D2306820F0070038433060306800F0C1
:101210000700B84251D128683B4C810712D54007DE
:1012200003D5606840F4E06060602878000703D56B
:10123000606840F4605060606068A96820F0F00069
:10124000084360602878C00728D06868012810D05B
:101250002168022810D0890700292EDA616821F060
:10126000030101436160FFF78DFE804641F288393A
:101270000DE021688903EFE78901EDE7FFF782FEC2
:10128000A0EB0801494502D90320BDE8F08760685A
:10129000696800F00C00B0EB810FEFD1306800F00E
:1012A0000700B8420BD9306820F00700384330609F
:1012B000306800F00700B84201D00120E5E7287847
:1012C000400705D56068E96820F4E0600843606085
:1012D0002878000706D56068296920F4605040EA44
:1012E000C100606000F058F86168084AC1F303115A
:1012F000515CC8400649086006480068FFF762FE76
:101300000020C2E70020024000100240985200086E
:1013100020000020180000200F2202600C4A5368B1
:1013200003F003034360536803F0F00383605368E2
:1013300003F4E063C36052684FF4E06303EAD2024F
:1013400002610448006800F0070008607047000070
:101350000010024000200240044805490068496826
:10136000044AC1F30221515CC840704720000020AC
:1013700000100240A8520008044805490068496866
:10138000044AC1F3C221515CC840704720000020CC
:1013900000100240A852000812A185B00FC98DE8C4
:1013A0000F0014A0144A006804905168134801F01B
:1013B0000C03042B10D0082B0ED1C1F38343C903B7
:1013C0001DF803000AD5516804AAC1F34041515CDD
:1013D0000A4A5043B0FBF1F005B070470849484352
:1013E000FAE7000002030405060708090A0B0C0DC2
:1013F0000E0F1010010200000010024000127A00CF
:1014000000093D002DE9F84F040070D02078C04D50
:10141000C00749D06868C0F38100012807D0686818
:10142000C0F38100022809D16868C00306D5286886
:10143000800339D560680028E7D035E06068B0F5F2
:10144000803F0BD010B1B0F5A02F11D0286820F448
:1014500080302860286820F4802002E0286840F46A
:1014600080302860606890B1FFF78CFD06460AE086
:10147000286840F480202860F0E700BFFFF782FD75
:10148000801B642873D828688003F7D50CE0FFF729
:1014900079FD064605E000BFFFF774FD801B642858
:1014A000F0D828688003F7D420789A4E80074FF050
:1014B00001094FF0000839D5686810F00C0F07D00B
:1014C0006868C0F38100022809D16868C00306D4A7
:1014D0002868800714D52069012808D110E0206908
:1014E000B0B1C6F80090FFF74DFD074605E00AE1F0
:1014F000FFF748FDC01B0228C4D828688007F7D52D
:101500002868616920F0F80040EAC10028600DE019
:10151000C6F80080FFF736FD074604E0FFF732FD0E
:10152000C01B022823D828688007F7D4207800073A
:101530002CD57948A169D9B1C0F80090FFF722FDF8
:10154000074604E0FFF71EFDC01B02280FD8686A9B
:101550008007F7D571484FF4FA510068B0FBF1F0FD
:10156000009000BF0098411E0091FAD20EE080E08A
:10157000C0F80080FFF706FD074604E0FFF702FD14
:10158000C01B022875D8686A8007F7D42078400706
:1015900060D5E8690027C00008D4E86940F08050B1
:1015A000E861E869012700F0805000905C4801681C
:1015B000C90513D40168834641F480710160FFF7C7
:1015C000E1FC824606E000BFFFF7DCFCA0EB0A006E
:1015D00064284ED8DBF80000C005F5D5E068012886
:1015E0000AD008B1052813D0286A20F0010028622B
:1015F000286A20F0040002E0286A40F00100286216
:10160000E06841F2883B98B1FFF7BCFC82460BE0F2
:10161000286A40F004002862EEE700BFFFF7B2FC42
:10162000A0EB0A0159455AD8286A8007F6D50CE084
:10163000FFF7A8FC824605E0FFF7A4FCA0EB0A0137
:1016400059454CD8286A8007F6D41FB1E86920F0C4
:101650008050E861E06988B36968C1F381010229BB
:1016600044D00228C6F8608004D0FFF78BFC044603
:1016700038E034E0FFF786FC074604E0FFF782FC21
:10168000C01B02282BD828688001F7D4206AB0F547
:10169000803F05D16868A16820F400300843686085
:1016A000D4E908010843696821F4741108436860AB
:1016B000C6F86090FFF766FC044606E025E000BF30
:1016C000FFF760FC001B022809D828688001F7D5C5
:1016D0001BE000BFFFF756FC001B022802D90320C5
:1016E000BDE8F88F28688001F4D40EE00128F7D017
:1016F0006868226A00F48031914204D1616A00F482
:101700007010884201D00120EAE70020E8E70000DD
:1017100000100240000042428004424220000020AB
:101720000070004070B5040009D0606A002540B127
:1017300025616561A56294F8510040B10CE001207B
:1017400070BD6068B0F5827FF4D0E561F2E784F89F
:101750005050204600F040F8022084F851002068E4
:10176000016821F040010160A088218900F48270A5
:1017700001F404410843A18901F400610843217C7C
:1017800001F002010843217D01F001010843218B92
:1017900001F400710843217F01F03801084394F8F7
:1017A000201001F080010843218D01F4005108430D
:1017B00021680860A069042101EA1040216848609E
:1017C0002068C16921F40061C1616565012084F868
:1017D0005100002070BD000030B585B00024009499
:1017E00001940294039400681549884225D1154854
:1017F000C16941F48041C161C16901F48041049132
:10180000816941F00801816180690F4D00F0080095
:1018100004904FF420400090022001900320039098
:1018200069462846FFF7B4FA4FF48040CDE900043A
:10183000694628460294FFF7ABFA05B030BD0000B8
:101840000038004000100240000C01402DE9F84F24
:10185000044690F8500000271D4616468946012888
:101860000DD04FF0010B84F850B0FFF78BFB804692
:1018700094F85100BA46012804D0022793E00220D0
:10188000BDE8F88FB9F1000F73D0002E71D003209E
:1018900084F85100C4F854A0C4F83090A686E686B7
:1018A000C4F838A0A4F83CA0A4F83EA0C4F844A012
:1018B000C4F840A0A068B0F5004F09D120680168C5
:1018C00021F0400101602068016841F4804101601D
:1018D00020680168490603D4016841F040010160B5
:1018E000E068B0F5006F606803D030B3012E24D0FB
:1018F00041E008B1012E1CD1206B21680088C8602E
:1019000006E020688168890709D5216B0988C160D4
:10191000206B801C2063E08E401EE08609E0FFF70C
:1019200031FBA0EB0800A84202D3681C01D031E0D3
:101930007DB3E08E0028E4D120E0206B21680078A0
:10194000087306E020688168890709D5216B09784A
:101950000173206B401C2063E08E401EE0860AE08D
:10196000FFF710FBA0EB0800A84203D3681C02D0CD
:1019700010E017E06DB1E08E0028E3D14246294621
:10198000204600F0B7FF08B120206065A06818B1BC
:1019900006E0FFE7032706E02068C1688068009042
:1019A000606D00B1012784F851B084F850A038462A
:1019B00066E770477047000070B590F83C20012A38
:1019C00026D0012480F83C40022280F83D200368A4
:1019D0005A689D6822F070060A6832435A600D4BBF
:1019E00002689A4208D0B2F1804F05D00A4B9A4261
:1019F00002D00A4B9A4204D1496825F0800319436A
:101A0000916080F83D40002180F83C10084670BD90
:101A1000022070BD002C014000040040000800407E
:101A200010B5040003D094F83D0010B107E0012088
:101A300010BD002084F83C00204600F01FF8022072
:101A400084F83D00211D206801F034F8012084F85D
:101A5000460084F83E0084F83F0084F8400084F893
:101A6000410084F8420084F8430084F8440084F87C
:101A7000450084F83D00002010BD000008B5006856
:101A8000B0F1804F12D10A48C16941F00101C16132
:101A9000C069002200F00100009005211C20FFF722
:101AA000FDFABDE808401C20FFF7EABA08BD0000B7
:101AB0000010024090F83D10012901D0012070472C
:101AC000022180F83D100168CA6842F00102CA6034
:101AD00000680B49884208D0B0F1804F05D0094911
:101AE000884202D00849884204D1816801F0070188
:101AF000062903D0016841F0010101600020704710
:101B0000002C0140000400400008004070B504466D
:101B100090F83C00012817D0012584F83C500220A1
:101B200084F83D002068826822F0770222F47F4228
:101B300082600868502830D00DDC20284DD005DCAC
:101B400098B310283BD148E0022070BD302844D023
:101B5000402834D139E0602828D0702806D0B0F56C
:101B6000805F2CD0B0F5005F29D10AE0CB68D1E9C5
:101B70000121206800F0D4FF2068816841F07701DE
:101B800009E0CB68D1E90121206800F0C9FF206895
:101B9000816841F48041816011E0CA684968206829
:101BA00000F0D0FF5021206807E016E0CA684968BD
:101BB000206800F0D8FF6021206800F0BBFF84F8A7
:101BC0003D50002084F83C0070BDCA684968206818
:101BD00000F0B8FF40212068EFE722680146104678
:101BE000EBE7704770B50446006801694FF00005E7
:101BF000C943890715D4C168C943890711D4E91EAF
:101C0000016101202077206880698007204602D08A
:101C1000FFF7E7FF04E000F098F8204600F096F8A0
:101C2000257720680169C943490717D4C168C943AA
:101C3000490713D46FF00401016102202077206866
:101C4000806910F4407F204602D0FFF7CAFF04E00D
:101C500000F07BF8204600F079F8257720680169CC
:101C6000C943090716D4C168C943090712D46FF0E4
:101C700008010161042020772068C06980072046A0
:101C800002D0FFF7AEFF04E000F05FF8204600F05E
:101C90005DF8257720680169C943C90617D4C16872
:101CA000C943C90613D46FF01001016108202077E1
:101CB0002068C06910F4407F204602D0FFF791FFF2
:101CC00004E000F042F8204600F040F82577206854
:101CD0000169C943C90708D1C168C943C90704D10B
:101CE000891E0161204600F033F820680169C9436C
:101CF000090609D4C168C943090605D46FF08001FB
:101D000001612046FFF755FE20680169C943490675
:101D100009D4C168C943490605D46FF04001016187
:101D2000204600F043F820680169C94389060BD4B6
:101D3000C168C943890607D46FF0200101612046BC
:101D4000BDE87040FFF736BE70BD704770470000B9
:101D500070B504460068B0F1804F0FD101F04EF825
:101D60000E4D2846697901F001F9A8710D22294626
:101D70000B4800F0B1F948B1FEF71AFC0949206898
:101D800088420AD1BDE87040FFF702B906490879D8
:101D9000401C08710120E871F0E770BD840000204C
:101DA000FC05002000080040040000207047704738
:101DB00070470000F8B5026804461068D16853699E
:101DC00010F00F0F4FF0000553D003F0010601F49F
:101DD000907737435FD0C20705D0CA0503D5226C80
:101DE00042F001022264420705D5DA0703D0226CD3
:101DF00042F002022264820705D5DA0703D0226C82
:101E000042F004022264020707D501F020023243A7
:101E100003D0226C42F008022264226C002A34D0E3
:101E2000800604D5880602D5204600F018FF2068F9
:101E30004069216CC0F38010090700D430B32046FC
:101E400000F0ECFE2068416949061BD5416921F08C
:101E500040014161A06BA8B158494163A06BFEF7F6
:101E600029FE002811D0A06B416B01B0BDE8F04005
:101E7000084783060FD58B060DD52046BDE8F840F0
:101E800000F0EDBE2046FFF793FFF8BD2046FFF7B8
:101E90008FFF2564F8BD266B2023012E52D1C60684
:101EA00050D5CE064ED51068506800905069400657
:101EB0002AD5A16B086840680004000CEAD0A68D02
:101EC0008642E7D9E0858869202818D0D06820F4B8
:101ED0008070D0602068416921F001014161206873
:101EE000416921F04001416184F83E30256320685A
:101EF000C16821F01001C160A06BFEF7B7FDA08D95
:101F0000E18D401A81B219E0A08DE18D401A81B2B5
:101F1000E08D0028BED00029BCD0D06820F490709D
:101F2000D0602068426922F00102426184F83E30AC
:101F300025632068C26822F01002C2602046FFF7C5
:101F400036FFF8BD05062BD50D0629D594F83D00C2
:101F50002128F6D1A068B0F5805F01D12069B0B129
:101F6000206A411C2162216800784860E08C401E94
:101F70000004000CE084E4D12068C16821F08001F5
:101F8000C1602068C16841F04001C160F8BD206AAD
:101F90000088C0F308005060206A801C2062E5E7DA
:101FA0004006F3D54806F1D5D168204621F040011E
:101FB000D16084F83D3000F0CFF8F8BD8B2B0008DD
:101FC00070B5040004D094F83D00002510B106E07F
:101FD000012070BD84F83C50204600F023F82420F6
:101FE00084F83D002068C16821F40051C16020469A
:101FF00000F090FE2068016921F4904101612068A1
:10200000416921F02A0141612068C16841F4005111
:10201000C1602564202084F83D0084F83E00002043
:1020200070BD000070B586B000250646009501958C
:10203000029503950068224988423FD12149886969
:1020400040F480408861886900F480400490886989
:1020500040F00400886188691B4C00F00400049083
:102060004815009002200190032003906946204605
:10207000FEF78EFE2015CDE9000569462046029543
:10208000FEF786FE124C114820601020C4E90105BD
:102090008020C4E903056561A5612046E561FEF77E
:1020A000FFFD08B1FEF784FA7463002205212520A4
:1020B0006662FEF7F3FF2520FEF7E2FF06B070BD73
:1020C0000038014000100240000801404400024076
:1020D000400600207047000070B5044690F83D00AF
:1020E000202830D169B362B394F83C0001282AD08B
:1020F000012084F83C002162A284E284002525644A
:10210000212084F83D00636B10489862636B10488F
:10211000D862636B0F481863606B1346456326688B
:10212000606B321DFEF7EAFD21686FF04000086029
:1021300084F83C502068416941F0800141610020F1
:1021400070BD012070BD022070BD0000E52B0008AD
:10215000132C00089B2B000870477047FEE770B5F2
:10216000064600219F237F22084600F099F90024AB
:102170000025304600F02EF96D1CA02DF9DB641C03
:10218000802CF5DB70BD000070B50D468749884C8A
:102190000122086002212046FEF7EFFE0520FEF72F
:1021A000E5FD002202212046FEF7E7FE0520FEF7AE
:1021B000DDFD012202212046FEF7DFFE1420FEF79E
:1021C000D5FD012000F04EF91420FEF7CFFD1120BF
:1021D00000F048F93220FEF7C9FDB12000F042F9C5
:1021E000022000F021F9352000F01EF9362000F021
:1021F0001BF9B22000F036F9022000F015F9352065
:1022000000F012F9362000F00FF9B32000F02AF99F
:10221000022000F009F9352000F006F9362000F020
:1022200003F9022000F000F9352000F0FDF8362017
:1022300000F0FAF8B42000F015F9032000F0F4F8EB
:10224000C02000F00FF9A22000F0EEF8022000F00C
:10225000EBF8842000F0E8F8C12000F003F9C52075
:1022600000F0E2F8C22000F0FDF80D2000F0DCF8EC
:10227000002000F0D9F8C32000F0F4F88D2000F021
:10228000D3F82A2000F0D0F8C42000F0EBF88D201D
:1022900000F0CAF8EE2000F0C7F8C52000F0E2F820
:1022A0000A2000F0C1F8362000F0DCF8C02000F071
:1022B000BBF8E02000F0D6F8122000F0B5F81C20A2
:1022C00000F0B2F8102000F0AFF8182000F0ACF8E1
:1022D000332000F0A9F82C2000F0A6F8252000F00B
:1022E000A3F8282000F0A0F8282000F09DF827206F
:1022F00000F09AF82F2000F097F83C2000F094F8B6
:10230000002000F091F8032000F08EF8032000F088
:102310008BF8102000F088F8E12000F0A3F81220DC
:1023200000F082F81C2000F07FF8102000F07CF80C
:10233000182000F079F82D2000F076F8282000F021
:1023400073F8232000F070F8282000F06DF82820A2
:1023500000F06AF8262000F067F82F2000F064F8FB
:102360003B2000F061F8002000F05EF8032000F050
:102370005BF8032000F058F8102000F055F83620E4
:1023800000F070F8002000F04FF83A2000F06AF8F2
:10239000052000F049F8292000F064F83220FEF70B
:1023A000E5FC2846BDE87040FFF7D9BE00000020DC
:1023B000000C014001B506484FF6FF73012200688A
:1023C0006946FFF743FA002801D0FEF7F1F808BD8F
:1023D0000000002038B5010A8DF800108DF80100CA
:1023E000012211460D48FEF7C8FD0D4D4FF48064E3
:1023F000002221462846FEF7C0FD0A484FF6FF732B
:10240000022200686946FFF721FA08B1FEF7D0F80A
:10241000012221462846FEF7B0FD38BD000C0140E0
:10242000000801400000002070B506460122114658
:102430000A48FEF7A2FD0A4D4FF4806400222146AF
:102440002846FEF79AFD3046FFF7B4FF214628469E
:10245000BDE870400122FEF790BD0000000C014075
:102460000008014070B50646002201210A48FEF727
:1024700084FD0A4D4FF48064002221462846FEF771
:102480007CFD3046FFF796FF21462846BDE87040A8
:102490000122FEF772BD0000000C0140000801405F
:1024A0002DE9F04104461D4616460F462A20FFF747
:1024B000D9FF0020FFF7B8FF2046FFF7B5FF002047
:1024C000FFF7B2FF3046FFF7AFFF2B20FFF7CAFF41
:1024D0000020FFF7A9FF3846FFF7A6FF0020FFF70F
:1024E000A3FF2846FFF7A0FFBDE8F0412C20FFF72F
:1024F000B9BF00002DE9F05F064600F10709134857
:102500008A46002400EB02180AEB0400C3B2C1B2F1
:1025100009F0FF02F0B2FFF7C3FF08EB0400A0F5DB
:102520008050002590F8007E4FF6FF7BF80700D022
:102530005846FFF74FFF6D1C7F08EDB2082DF5D30D
:10254000641CE4B2102CDFD3BDE8F09F6E4C000891
:102550002DE9F04F89B01546DDE912471E468A463F
:102560008346062F00D90627E8460A2C00D90A24FC
:102570000020014601F08AFF2A4633461AA103D201
:10258000684601F013FC04E008F1010001F00EFCC4
:10259000401CC0B2C01F011B491E3844401C4CB235
:1025A00047B24FF0200905E008F807907F1C641C33
:1025B0007FB264B2002CF7DB00202A463346014686
:1025C00001F064FF03D22D2108F8041001E008F89F
:1025D0000490002108F807106A465146584600F05A
:1025E00005F809B0BDE8F08F256600002DE9F0413F
:1025F0000024154607468E0007E000BF07EBC40025
:102600003146FFF777FF641CA4B22A57002AF5D1A0
:10261000BDE8F081F8B505466420B2FBF0F08DF816
:1026200000000A23B2FBF3F0B0FBF3F403FB140049
:102630008DF80100B2FBF3F003FB102000248DF8AD
:1026400002006F468E00385D3146303042B205EBF5
:10265000C400FFF74FFF641CE4B2032CF3D3F8BDB2
:10266000FEB500252148009501951F49029501609E
:1026700089158160012404730575042606614FF4F1
:1026800060214560C161FEF78BF808B1FDF790FF4E
:102690000720CDE90004029069461448FDF78CFF3D
:1026A00008B1FDF785FF06200090022001906946E1
:1026B0000E48FDF781FF08B1FDF77AFF0320CDE951
:1026C000005069460948FDF777FF08B1FDF770FF34
:1026D000CDE9004669460548FDF76EFF002801D0A8
:1026E000FDF766FFFEBD000000240140E804002065
:1026F0000D4808B5416941F001014161406900227E
:1027000000F00100009005210B20FEF7C7FC0B2014
:10271000FEF7B6FC002205210E20FEF7BFFCBDE847
:1027200008400E20FEF7ACBC0010024010B58EB081
:102730001C220C496846FDF7D8FD0021684600F0D0
:10274000E8FD094C07491C2220601C3107A8FDF751
:10275000CCFD002107A800F0DCFD606001F032F83C
:102760000EB010BD605200080C00002070B586B09D
:10277000002423480094019402940394816941F059
:1027800020018161816901F020010491816941F09A
:1027900004018161816901F004010491816941F0C2
:1027A000080181618069174E00F008000490002242
:1027B00040F203413046FEF7E0FB01224FF4707116
:1027C0003046FEF7DAFB40F2C3700125CDE9000583
:1027D0000220CDE9024069463046FEF7D9FA4FF4AF
:1027E00010408DE8310069460748FEF7D1FA3020E5
:1027F0008DE8310069463046FEF7CAFA06B070BD72
:1028000000100240000C0140000801400F4810B5C4
:102810000D4901604FF48271416000218160C16007
:102820004FF400720161C0E90512C16101624162A9
:1028300081620A21C162FEF775FF002803D0BDE85E
:102840001040FDF7B5BE10BD003800405C0500200B
:1028500010B586B0002417480094019402940394A4
:1028600004944FF080410594016041F61F41C0E996
:10287000011440F2E731C0E903148461FFF7D0F896
:1028800008B1FDF795FE4FF4805000906946094865
:10289000FFF73CF908B1FDF78BFE049404A9054845
:1028A0000594FFF789F8002801D0FDF781FE06B0F6
:1028B00010BD0000B40500200C4810B50A490160A5
:1028C0004FF416514160002181600C22C160C0E9C3
:1028D00004128161C161FFF773FB002803D0BDE8DA
:1028E0001040FDF765BE10BD00380140FC0500201A
:1028F000FEE7FEE738B50B46009204460022802131
:1029000000F008F8002804D0606D40F020006065F9
:10291000032038BD2DE9F8431E46914688460446FB
:10292000089DFEF72FFB401B351AFEF72BFB0746D1
:1029300025480068C0F3CB30684338E0701C37D0BE
:10294000FEF720FBC01BA84203D215B1009860B36C
:102950002CE02068416821F0E00141606068B0F53A
:10296000827F0BD1A068B0F5004F02D0B0F5806F28
:1029700004D12068016821F040010160A06AB0F52F
:10298000005F09D12068016821F4005101602068CE
:10299000016841F400510160012084F851000020D9
:1029A00084F850000320BDE8F8830025401E009005
:1029B0002068816838EA010004D000214945BDD172
:1029C0000020F0E70121F9E720000020054C00BFBE
:1029D00000F0E4FA00F0EAFB2070012000F0E2FFD2
:1029E000F6E700000900002000F034FA012000F0B2
:1029F000D9FFF9E710B5502080F31188BFF34F8F4E
:102A0000BFF36F8F01F00CF918B104494FF08050FB
:102A10000860002080F3118810BD000004ED00E084
:102A200030B593B028216846FDF791FC14210AA81F
:102A3000FDF78DFC002501200F95109511950104DF
:102A400012958DE8230004904FF4E010CDE90810B2
:102A5000022407946846FEF7D5FC08B172B6FEE77B
:102A60000AA90F2081E831004FF48060CDE90D05FF
:102A700002210AA8FEF7BAFB08B172B6FEE74FF4CE
:102A8000004011900F940FA8FEF73AFB002801D0E8
:102A900072B6FEE713B030BD704700000148FFF783
:102AA000A1B80000B40500200148FFF79BB8000062
:102AB00084060020F0B50268164B174C174D4FF0F6
:102AC0008047984205D0B84203D0A04201D0A84226
:102AD00003D122F070064A683243984205D0B842CA
:102AE00003D0A04201D0A84203D122F44074CA68A6
:102AF00022434C6922F08002224302608A68C2624B
:102B00000A688262984201D1096901630121416129
:102B1000F0BD0000002C014000040040000800400F
:102B200010B5846842EA032224F47F440A43224316
:102B3000826010BD826822F070020A4342F00701F1
:102B40008160704710B5036A046A24F001040462CE
:102B5000846924F0F00444EA021423F00A020A43D0
:102B60008461026210BD10B5036A23F01003036292
:102B70008369046A23F4704343EA023224F0A00319
:102B800043EA01118261016210BD10B5406A002163
:102B9000C185C184FFF70CF910BD70B5446A206887
:102BA000406994F83D10C0F3C0100025212904D1DC
:102BB00018B1E584204600F049F82068406994F88F
:102BC0003E10C0F38010222904D118B1E5852046BB
:102BD00000F024F8206C40F0100020642046FFF73D
:102BE000E7F870BD10B50146406A096809688906B2
:102BF0000CD40021C18401684A6922F080024A6134
:102C00000068C16841F04001C16010BDFFF7A4FA3F
:102C100010BD10B5406AFFF7A0FA10BD0168CA6880
:102C200022F49072CA6001684A6922F001024A6186
:102C3000016B012904D10168CA6822F01002CA6040
:102C4000202180F83E100021016370470168CA68A6
:102C500022F0C002CA60202180F83D10704708B5FC
:102C600090F83E10222901D0022008BD82684FF45E
:102C700080539A4201D1016921B1816A9A421BD0E5
:102C80004AB10AE00268816A5268C2F308020A8007
:102C9000816A891C08E0026972B10268526802F018
:102CA0007F020A70816A491C8162C18D491E090434
:102CB000090CC18503D019E002685268F1E7016888
:102CC000CA6822F02002CA600168CA6822F48072D1
:102CD000CA6001684A6922F001024A61202180F835
:102CE0003E10016B012903D0FFF7F4F9002008BD65
:102CF000002101630168CA6822F01002CA600168FD
:102D00000A68D20602D50A6849680091818DFFF7EA
:102D10004EF8EBE770B5044600680169E26821F4FB
:102D20004051114301612169A0680843616908436A
:102D30002168CA6841F20C639A430243CA60206862
:102D40004169A26921F44071114341611E49206823
:102D5000884202D1FEF710FB01E0FEF7FDFA00EB1E
:102D6000C00101EB0012606864218000B2FBF0F347
:102D7000B3FBF1F36FF018067343B2FBF0F5B2FB4F
:102D8000F0F605EB8305322303EB0515B5FBF1F5F2
:102D9000B6FBF1F605F0F00505EB0615B2FBF0F613
:102DA000B2FBF0F0B0FBF1F06FF01802504306EB0D
:102DB000800003EB0010B0FBF1F0216800F00F0081
:102DC0002844886070BD0000003801400148FEF7CB
:102DD000F1BF0000FC050020FEE70907090E0028EE
:102DE00004DB00F1E02080F80014704700F00F00D1
:102DF00000F1E02080F8141D7047000070B5114DFF
:102E0000114E3146286801F0F1FD01F0BBFD0F4C79
:102E100031462072686801F0E9FD01F0B3FD60728F
:102E20003146A86801F0E2FD01F0ACFDA072314628
:102E3000E86801F0DBFD01F0A5FDE07204480078D0
:102E4000207370BD840200200000C842840000206E
:102E5000090000207CB532A200210C20FFF7C6FB40
:102E600033A205210020FFF7C1FB33A20A21002075
:102E7000FFF7BCFB32A20F210020FFF7B7FB32A205
:102E800014210020FFF7B2FB31A219210020FFF727
:102E9000ADFB314E05213C207279FFF7BBFB2F4D76
:102EA000286801F01FFC022402460B4600940A2108
:102EB0003C200194FFF74CFB686801F013FC0246CC
:102EC0000B4600940F213C200194FFF741FBA868BA
:102ED00001F008FC02460B46009414213C200194AA
:102EE000FFF736FBE86801F0FDFB02460B46009455
:102EF00019213C200194FFF72BFB1948C0790128C8
:102F00000CD1327923213C20FFF784FB02B023212E
:102F1000BDE8704013A20020FFF768BB7CBD000035
:102F20006469795F6A6F79737469636B000000008C
:102F30006B65793A000000006A73315F783A0000EF
:102F40006A73315F793A00006A73325F783A000041
:102F50006A73325F793A0000040000208402002086
:102F60008400002049276D204F4B210030B50346D7
:102F700000208C240EE000BF13F8012B50400022EB
:102F8000C50702D084EA500000E04008521CD2B2CB
:102F9000082AF5D3491EC9B2EED230BD2DE9F0475B
:102FA0000020464C014600BF44F82010401C042875
:102FB000FADB434A002000BF02EB001123680D68D2
:102FC000401C2B44236063684D681E282B446360BB
:102FD000A3688D682B44A360E368C9681944E16065
:102FE000EADB00205FF01E0154F82020B2FBF1F272
:102FF00044F82020401C0428F6DB304D206840F6C1
:103000008636304F1035DFF8C080DFF8C0904FF0C3
:103010007C5AB04205D801F0D5FC394601F0F0FBEE
:103020000AE001F0CFFC414601F0ACFD494601F059
:10303000E7FB514601F082FB28606068B04205D88A
:1030400001F0C0FC394601F0DBFB0AE001F0BAFCFC
:10305000414601F097FD494601F0D2FB514601F08F
:103060006DFB6860A068B04205D801F0ABFC394642
:1030700001F0C6FB0AE001F0A5FC414601F082FD2B
:10308000494601F0BDFB514601F058FBA860E068DD
:10309000B04205D801F096FC394601F0B1FB0AE0D8
:1030A00001F090FC414601F06DFD494601F0A8FB9E
:1030B000514601F043FBE860BDE8F0877402002050
:1030C000940000200060B8450060384500400F457E
:1030D0001449002009780A1F0D2A20D2DFE802F0E7
:1030E0000713151709191B1D0B0F08110D0061207F
:1030F00070476220704763207047642070472A2021
:103100007047232070470420704705207047062031
:10311000704707207047082070470920704708460D
:10312000704700000400002070B51D4D4FF40041B1
:103130002846FDF71DFF1B4CC000A914A0702846AF
:10314000FDF716FFA178184D41EA8000A07010210C
:103150002846FDF70DFFA17841EA4000A07020212C
:103160002846FDF705FFA1780843A0700F280DD071
:103170000A2000F017FCA0780F2807D0072807D0F6
:103180000B2807D00D2807D00E2807D0002070BDCF
:10319000012070BD022070BD032070BD042070BDF1
:1031A0000008014004000020000C014070B5334DC0
:1031B000002240212846FDF7E0FEFFF7B5FF304C26
:1031C000607040B1FFF7B0FF0028FBD16078FD21AF
:1031D00001EB80002070012240212846FDF7CDFE42
:1031E000002280212846FDF7C8FEFFF79DFF607092
:1031F00048B100BFFFF798FF0028FBD16078FE219F
:1032000001EB80002070012280212846FDF7B5FEE9
:103210004FF48076002231462846FDF7AEFEFFF7D8
:1032200083FF607048B100BFFFF77EFF0028FBD12D
:103230006078FF2101EB8000207001223146284692
:10324000FDF79BFE4FF40076002231462846FDF73D
:1032500094FEFFF769FF607038B100BFFFF764FFAD
:103260000028FBD16078800020700122314628467A
:10327000FDF783FEFFF72CFFE07070BD000C0140EE
:1032800004000020FDF78CFEFFF7CAFBFFF76EFA83
:10329000FFF72EFAFFF710FBFFF7E2F9FFF7B6FA98
:1032A000FFF7D6FAFFF742FA00F02EF8FEE70146E4
:1032B0000020842900D0C81C704710B500247AB1C2
:1032C000002800DA404290FBF3F203FB120290FB6D
:1032D000F3F03032641C0A70E4B298B1491CF2E792
:1032E000B0FBF3F203FB1202D2B20A2A01D3373247
:1032F00000E03032B0FBF3F0641C0A70E4B208B1B5
:10330000491CEDE7204610BD10B500F071FB002010
:1033100010BD7FB50D4604464169B0F9080081B182
:10332000A16971B1FFF7C3FFD4E905128DE8070069
:10333000D4E900102B46226900F047FC039004B04A
:1033400070BDFFF7B4FF03A9CDE90001208A2B4629
:1033500082B2D4E9001000F00BFC012801D000205B
:10336000EDE70398EBE730B5002207E08B1A1C1855
:10337000855C14F8013D25708354521CB2EB510F4B
:10338000F4D330BD2DE9F041184C0F46054666696F
:103390002068001D00F042FA38B9206890F82C101F
:1033A00001208840A1698143A161681C07D137B120
:1033B0002168BDE8F0410E48091D00F073BA20688D
:1033C0003544B5424560216805D2A068BDE8F041AA
:1033D000091D00F04FBA6068091D00F04BFA206B20
:1033E000854200D22563BDE8F08100002400002062
:1033F000A80700202DE9F041054600F05FFA2E4CA9
:103400002069401C206120682C4F10B1E06940B356
:103410002DE025602069012829D1002606EB8600D1
:1034200007EB800000F018FA761C072EF6D323482D
:103430008C3000F011FA2148A03000F00DFA1F483E
:10344000B43000F009FA1D48C83000F005FA1B48F6
:10345000DC3000F001FA19488C3060601430A06054
:1034600005E02068E96AC06A884200D82560E06A01
:10347000401CE062E96A0120A26988401043A06113
:1034800001EB810007EB8000291D00F00BFA00F032
:1034900035FAE06900280CD02068E96AC06A8842E1
:1034A00007D207494FF080500860BFF34F8FBFF33A
:1034B0006F8FBDE8F081000024000020CC060020C2
:1034C00004ED00E010B5044690F8510058B1012811
:1034D0000CD002280FD0502080F31188BFF34F8FFB
:1034E000BFF36F8FFEE7206B00F01CFA2046BDE8AB
:1034F000104000F017BA10BD10484FF44061420769
:1035000006D0C01D0D4920F00700411AC1F54061E9
:103510000B4A00230144C2E900030839103A21F0A4
:10352000070111604B600B600B1AC0E90013936038
:103530004FF000405360D06070470000BC0700208F
:1035400070000020144E154CA6F1C8074FF08058AB
:10355000DFF84C9012E000BF00F0B0F9F068C568E9
:10356000281D00F05BF92069401E2061E068401EC4
:10357000E06000F0C3F92846FFF7A4FFE0680028E8
:10358000EAD138680128F9D9C9F80080BFF34F8F14
:10359000BFF36F8FF2E700009407002024000020A3
:1035A00004ED00E02DE9F0479A46DDE90984814603
:1035B0006FF00303206B03EB82021044089D20F0A0
:1035C0000706700707D0502080F31188BFF34F8F94
:1035D000BFF36F8FFEE723180A5C83F834200A5C80
:1035E00012B1401C1028F6D3002784F84370072D31
:1035F00000D30625E562C4E91157201D00F037F914
:1036000004F1180000F033F92461C5F10700646289
:10361000A061E76484F8507052464946304600F095
:10362000BFF82060B8F1000F01D0C8F80040BDE835
:10363000F087000030B5114900E011460A68824267
:10364000FBD34B685C18844203D14068184448603F
:10365000084643681C18944209D1084C103C246861
:10366000A24209D052681A4442600A681268026095
:10367000814200D0086030BD0460F9E7700000208E
:1036800006484168096829B14168C968C96849683C
:10369000016370474FF0FF31FAE70000240000207B
:1036A00008484068401C4FF0500080F3118804D057
:1036B000BFF34F8FBFF36F8FFEE7BFF34F8FBFF3A3
:1036C0006F8FFEE7780000202DE9F04105460027C6
:1036D00000F0C4F9314E306808B9FFF70DFFF0680B
:1036E00005424BD1C5B3083568070ED005F0070079
:1036F000C0F108000544680707D0502080F3118806
:10370000BFF34F8FBFF36F8FFEE72DB37068854215
:1037100034D82248103001460C6801E020460C469F
:103720006168A94202D221680029F7D131688C4230
:1037300024D007682168016060680837411B1029A0
:103740000FD96019420708D0502080F31188BFF3C9
:103750004F8FBFF36F8FFEE710E041606560FFF7AA
:1037600069FF61687068401A7060B268904200D268
:10377000B060F06801430020C4E9000100F0B4FA31
:10378000780707D0502080F31188BFF34F8FBFF325
:103790006F8FFEE73846BDE8F08100006000002032
:1037A00010B5031F4FF080741C601B1F21F0010136
:1037B0001960191F024B0B60143940380A6010BDA4
:1037C000A136000810B5104CFF200121E0705520F3
:1037D00020710020207061701421A1700D21617191
:1037E000E0712046FFF7C2FBA0714FF4FC6107486F
:1037F000FEF7CAFC0648FEF75DF9BDE810407822E6
:1038000004490548FDF7ACB8840000205C050020A1
:10381000B405002094000020E8040020D0E9013223
:1038200001699A60D0E901235A604A68824201D155
:1038300082684A60002202610868401E08600868C9
:1038400070470000034B036003F1540008608020C0
:10385000106070479402002000F108014FF0FF3221
:10386000C0E90112C16001610021016070470021BF
:103870000161704730B50B685A1C02D000F1080294
:1038800002E0026904E02246546825689D42FAD9A4
:1038900053684B6099608A60516008610168491CF7
:1038A000016030BD42684A6093688B6093685960DC
:1038B000916008610168491C01607047502080F3E5
:1038C0001188BFF34F8FBFF36F8F0A494868401CC0
:1038D000486001280CD10848006810F0FF0F07D09D
:1038E000502080F31188BFF34F8FBFF36F8FFEE737
:1038F000704700007800002004ED00E008494868A7
:1039000028B1401E486001D180F3118870475020D3
:1039100080F31188BFF34F8FBFF36F8FFEE7000076
:103920007800002070B5002827D0144DA0F10804BD
:103930006168E868014207D1502080F31188BFF325
:103940004F8FBFF36F8FFEE722683AB1502080F3AC
:103950001188BFF34F8FBFF36F8FFEE78143616024
:1039600000F07CF860686968084468602046FFF7EA
:1039700061FEBDE8704000F0B7B970BD6000002086
:103980004FF0E02000210161816105494FF47A7216
:103990000968B1FBF2F1491E4161072101617047DD
:1039A0002000002010B5020014D00F48806B38B101
:1039B000502080F31188BFF34F8FBFF36F8FFEE766
:1039C00000F04CF800211046FFF7DCFC00F08CF909
:1039D000002807D105494FF080500860BFF34F8F92
:1039E000BFF36F8F10BD00002400002004ED00E045
:1039F00010B586B00024039405AA04A903A8049472
:103A0000FFF720FFDDE903010094CDE90110002359
:103A10000EA11048059A00F0D8F80F490028486315
:103A200011D0502080F31188BFF34F8FBFF36F8FF9
:103A30004FF0FF3008630120C8614C6106B0BDE85B
:103A4000104000F041B806B010BD000049444C459C
:103A50000000000045350008240000200248816B6A
:103A6000491C816370470000240000201448816BCA
:103A700011B1012141627047002141628169B1FAAF
:103A800081F1C1F11F0101EB81020E4951F8223091
:103A90006BB101EB820101F108034A6852684A6088
:103AA0009A4201D152684A60D16801607047502043
:103AB00080F31188BFF34F8FBFF36F8FFEE70000D5
:103AC00024000020CC0600201CB52649087801906F
:103AD000FF20087008788DF800009DF800009DF820
:103AE000002000F0F000904207D0502080F31188B1
:103AF000BFF34F8FBFF36F8FFEE79DF800001A4BA7
:103B000000F0500018700720986005E09DF8002034
:103B100052008DF80020401E9DF800201206F5D4BA
:103B20009860032807D0502080F31188BFF34F8F8F
:103B3000BFF36F8FFEE74FF44070986001980870F4
:103B40000A48016841F470010160016841F0704168
:103B50000160FFF715FF00205860FCF727FB0020ED
:103B60001CBD000000E400E07800002020ED00E033
:103B70002DE9FF5F8346DDE90E87994616468A46A2
:103B80009000FFF7A1FD05001CD05420FFF79CFD1D
:103B9000040014D00020256384F85100CDE90240D0
:103BA000CDE900874B46324651465846FFF7FAFCAE
:103BB0002046FFF71FFC012004B0BDE8F09F284617
:103BC000FFF7B0FE4FF0FF30F6E7F0B585B0DDE966
:103BD0000B640A9DA6B1DCB1542700972663022628
:103BE00084F85160002604AFCDE90246CDE90057C4
:103BF000FFF7D8FC2046FFF7FDFB049805B0F0BDA9
:103C0000502080F31188BFF34F8FBFF36F8FFEE713
:103C1000502080F31188BFF34F8FBFF36F8FFEE703
:103C20002DE9F0412E4C0027A06B40B1206A401CCA
:103C30002062606A00B101273846BDE8F0816669FC
:103C4000761C666113D16068006838B1502080F33B
:103C50001188BFF34F8FBFF36F8FFEE76068A168D5
:103C60006160A060A06A401CA062FFF709FD206BA4
:103C7000DFF87080864209D36068006880B16068B0
:103C8000C068C568686886420DD220632068C06A33
:103C900000EB800158F821000128CAD90127C8E7A4
:103CA0004FF0FF30F1E7281DFFF7B8FDA86A18B103
:103CB00005F11800FFF7B2FDE86A0121A269814011
:103CC0001143A16100EB800108EB8100291DFFF782
:103CD000E9FDE86A2168C96A8842CDD30127CBE7AC
:103CE00024000020CC0600202DE9F0472C4D0024B4
:103CF0002746A86B38B1FFF7E1FDA86B401EA8630B
:103D0000A86B40B146E0502080F31188BFF34F8F7D
:103D1000BFF36F8FFEE72969224E0120D1B3A6F1D0
:103D2000B40980463068E8B1F068C46804F118004E
:103D3000FFF774FD201DFFF771FDE06AAA6908FA1C
:103D400000F11143A96100EB800109EB8100211D05
:103D5000FFF7A8FDE06A2968C96A8842E2D3C5F87E
:103D60002480DFE70CB1FFF78BFC2C6A44B1464698
:103D7000FFF756FF00B16E62641EF9D10020286281
:103D8000686A38B10849012738070860BFF34F8FC8
:103D9000BFF36F8FFFF7B2FD3846BDE8F087000034
:103DA000240000208007002004ED00E00FB42DE97E
:103DB000F04F8FB0054600261AAC4FF030090DF1D8
:103DC00008082DE0252825D1491C19910878662876
:103DD00048D00EDC612820D006DC25281AD04628E1
:103DE00040D0582819D1B6E0632811D0642814D1E6
:103DF00020E073287CD006DC69281BD06F2878D09F
:103E000070280AD1C4E0752874D0782805D1A2E0C2
:103E100014F8040B05F8010B761C1998401C199036
:103E2000199908780028CDD10FB03046BDE8F00FC1
:103E30005DF814FB54F804AB0A23012201A9504693
:103E4000FFF73BFA0746BAF1000F04DA01A92D206B
:103E5000C8557F1CFFB2394601A8FFF784FA3A46DD
:103E600001A985E0E41D24F00704F4E8020182467C
:103E70008B4600F08BF90A23012202A90E90FFF76E
:103E80001CFA0746002213465046594600F0C4F972
:103E900004D22D2008F807007F1CFFB2394602A883
:103EA000FFF761FA3A4602A92846FCF7D9F9F0195A
:103EB00000903D440E9800F098F952465B4600F0A1
:103EC0001BFB0022384B00F0E3F9002206460F46A8
:103ED000134600F01FF90ED03046394600F056F96F
:103EE0000A23012202A9FFF7E8F94946424613E0F6
:103EF00044E027E023E08DF80B908DF80A908DF8D0
:103F00000D908DF809908DF80C908DF80890062092
:103F100004E01154401CC0B20628FAD32E2208F83F
:103F20000020401CC6B2314602A8FFF71CFA3246F8
:103F300002A92846FCF794F9009806446DE701CCE5
:103F40000A230AE001CC0823002201A9FFF7B5F9F2
:103F50000746014680E701CC1023002202A9FFF7A3
:103F6000ACF90746014602A8FFF7FDF93A4602A957
:103F70002846FCF775F93D443E444EE701CC03E08A
:103F8000401C05F8011B761C01780029F8D144E794
:103F9000082101A8FFF7E7F9019845F8040B0298FA
:103FA00045F8040B083638E780842E4110B591EAB5
:103FB000030F48BF83F0004300F1B282841A71EB13
:103FC000030C05D2121943EB0C03001B61EB0C012F
:103FD000DFF824E14FEA1154A4EB135C1EEA430F0F
:103FE00018BF9EEA445F73D023EA0E03DCF1200E73
:103FF00021EA045143F4801332D322FA0CFE10EB71
:104000000E0023FA0CFE41EB0E01CCF1200E03FA58
:104010000EFE10EB0E0051F10001B1F5801FCCF146
:10402000200E32D201EB045112FA0EF2BDE810401C
:1040300058BF7047401C38BF5FEA420218BF704744
:10404000002814BF20F0010041F100014FEA4103B4
:1040500013F5001F38BF7047A1F1C04100F010BA3E
:10406000012A43EB0302ACF1200CDCF11F0E32BF3E
:104070004FF0000E23FA0CF310EB030041EB045158
:10408000B4EB115FD0D0A1EB045101F580114908C8
:104090005FEA300001EB04510ED350F1000038BF4D
:1040A00012FA0EFE08D1BDE81040C9E7401C38BF27
:1040B0005FEA4202CAD1C3E7BDE810404FEA4103BC
:1040C00013F5001F38BF7047A1F1C04100F0D8B907
:1040D0009EEA445F08D011EA5E0FBDE8104004BFBD
:1040E00001F0004100207047BDE8104070B500F0BD
:1040F00079F900BF64FBBE3E0000E0FF491058BFE5
:10410000C1F140415B1058BFC3F140438B42EFF314
:104110000080704751EA030C17D41CF5801F58BF6C
:10412000BCF5801F00F10680994218BF704708BF98
:104130009042704707D711F5801F58BF13F5801FB5
:1041400019D499427047894270471CF5801F08D5E1
:10415000BCF5801FF7D58B4218BF704708BF82425D
:1041600070474FF4001C1CEB410F38BF1CEB430F92
:1041700001D28B42704770B500F034F992244900A7
:104180004FF000514FF08053FFF7B8BF4FEA4103A3
:104190004FEA5353A3F58063D3F11E03C8BFD3F195
:1041A000210C0CDD4FF0004242EAC12242EA50529B
:1041B00032FA03FC8CEAE17CACEBE1707047102B27
:1041C000C4BF0020704703F5787CBCF1FF3F04D0EA
:1041D0006FF0004282EA2100704770B500F002F9EA
:1041E0004992248000207047F2E710F0004248BF57
:1041F0004042B0FA80F310FA03F10AD0C3F11D0374
:1042000003F580634FEA415002EB035202EBD121E8
:1042100070474FF00000704751EA030C17D41CF5AB
:10422000801F58BFBCF5801F00F10680994218BF5F
:10423000704708BF9042704707D711F5801F58BFDD
:1042400013F5801F19D499427047894270471CF5B5
:10425000801F08D5BCF5801FF7D58B4218BF70476B
:1042600008BF824270474FF4001C1CEB410F38BF5F
:104270001CEB430F01D28B42704770B500F0B2F8CF
:10428000922449004FF000514FF08053FFF736BFA2
:10429000DFF848C170B51CEA111E1EBF1CEA1315D9
:1042A0009EEA0C0F95EA0C0F00F06F8081EA030480
:1042B00023EA4C134EEAD47E21EA4C1141F48011DA
:1042C00043F48013AE44A1FB024CA0FB0365AEF1A6
:1042D0007F7E361955EB0C05A1FB034C4CF1000316
:1042E000A0FB021C16EB0C06654153F100030942CA
:1042F00018BF46F0010613F4007F0BD14FEA0331DB
:104300004FEA0530340341EA155140EA16506FF088
:1043100003020AE04FEAC3214FEAC520F40241EA52
:10432000555140EA56506FF0020202EB2E4201EB6B
:10433000025585EACE710AD05FEA440C18BF24F01A
:10434000004450F1000041F1000120EAD47040F235
:10435000FE7C624500D270BDA84214BF4FF080447D
:104360004FF04044002E08BF0024BEF1806FA8BF6C
:10437000A1F1C041BDE8704080F282804FF00000A2
:1043800001F1C04101F0004170479EEA0C0F0CEAB8
:10439000131518BF95EA0C0F06D04FF0000081EA04
:1043A000030E0EF0004170BD00F01CF88900013EC4
:1043B00000F007B800F009B84FEA430C5FEA5C5C14
:1043C00008D081EA030100F05BB84FEA410C5FEAD4
:1043D0005C5CF6D14FF00000014970470000FF0718
:1043E0000000F87F0EF1020E2EF0030E5EF8046B53
:1043F000364205D4012A43EB030515F5001F12D8F8
:10440000012841EB010C1CF5001F0CD80ED14FEA1E
:10441000D17C15F5001F0CEB4C0C0CF1020C08BF05
:104420004CEBD37C04E04FF0080C01E04FEAD37C66
:104430000CEB4C0526FA05F606F00706B6F1040C5F
:1044400006D20EEB860CBDE870404CF0010C6047C4
:10445000DFE80CF0090B02024FF000414FF00000C2
:10446000A1F5002170BD19461046012851EB010449
:1044700018BFD4F5001484BF002001F0004170BDC6
:104480000808A0F500114FEA3101704753EA010C0A
:1044900017D41CF5801F58BFBCF5801F00F10680A3
:1044A0008B4218BF704708BF8242704707D713F589
:1044B000801F58BF11F5801F19D48B4270479B4253
:1044C00070471CF5801F08D5BCF5801FF7D59942B1
:1044D00018BF704708BF904270474FF4001C1CEB98
:1044E000430F38BF1CEB410F01D2994270470FB404
:1044F0000CBC03BCFFF7C1BE91EA030F10B581F0FD
:1045000000413FF55BAD83F0004300F009B80000C7
:1045100010B591EA030F48BF83F000433FF54EAD5D
:10452000841A71EB030C07D212198CF0004C43EB88
:104530000C03001B61EB0C01DFF8A4E14FEA1154FE
:10454000A4EB135C1EEA430F18BF9EEA445F00F021
:10455000B08023EA6E03524221EA0451C3EB6E039A
:1045600038BF5B1EDCF1200E25D322FA0CFE10EBC7
:104570000E0043FA0CFE41EB0E01CCF1200E03FAC3
:104580000EFE10EB0E0051F10001CCF1200E29D4EB
:1045900012FA0EF201EB0451BDE8104058BF70470B
:1045A000401C1CBFB2F1004F704700280CBF491CD3
:1045B00020F00100704712EB020E43EB030218BF1C
:1045C0004FF0010E4EEA4202ACF1200CDCF11E0E5F
:1045D00054D943FA0CFE10EB0E0051F1FF31CCF12F
:1045E0001E0ED5D50EF1010E12FA0EFE404141EB22
:1045F000010101EB445C5FEA5C5C10D910EBDE70FA
:1046000001EB045138BFBEF1004FBDE8104018BFA8
:10461000704700280CBF491C20F00100704730D2C1
:104620004FEAD42C11F5001124F400641BD0B1FA28
:1046300081F20B3AA41AA41ED2F12003914030FA61
:1046400003F31943904001EBCC71002C01EB0451B2
:10465000BDE81040A8BF704701F1C0414FF0000015
:1046600001F000417047B0FA80F310FA03F100D175
:1046700010BDE41A173C4805C90AE4E701EB0451F0
:1046800010BD491001EB0451BDE810404FEA300065
:1046900002E04FF0000170474A0008BF0042F8D026
:1046A000B2F5001F28BF704701F000414FF0000035
:1046B00070479EEA445F07D011EA5E0FBDE81040E4
:1046C00004BF002100207047BDE8104070B5FFF71F
:1046D00089FE00BF40DFF63E83F000411046704780
:1046E0000000E0FF43004FEAD30C4FEA3C0C43408C
:1046F0001FBF40070CF1605113F0FE4F70471CF0D4
:10470000006F03D100200CF0004170470CF0004313
:1047100043EA507010B540EACC0000F0E8F900BF61
:10472000000000924FEA0001FFF7AABE4FF00041DF
:104730004FF00000A1F500217047000090EA010F42
:1047400048BF81F0004100F12482421A3CBF801A28
:1047500089184FEAD0524FF07F4C1CEA410FA2EB70
:10476000D15318BF9CEA026F00F03B804FF0004C21
:104770004CEA00204CEA012121FA03FC10EB0C0C5E
:104780001ED202F1FF325FEA1C2040EBC25038BF5C
:1047900070471CF07F0F4FEA400C18BFBCF17F4FF1
:1047A00038BF7047C3F12003994008BF20F00100D3
:1047B000BCF17F4F38BF7047A0F1C04000F0DDB9B9
:1047C0004FEA3C00000A40EBC25028BF1CF0FF0F2C
:1047D0004FEA400CE6D018BFBCF17F4F38BF70479E
:1047E000EAE79CEA026F05D010EA5C0F08BF00F010
:1047F0000040704710B500F07AF900BF64FBBE3E80
:104800004FF47F0C1CEAD0121EBF1CEAD11392EAAF
:104810000C0F93EA0C0F00F0858090EA010F48BF5F
:1048200042F4807240F4000C41F400002CF07F410F
:1048300020F07F4000B58142A2EB03020FF2081C7A
:10484000ACEB504EC0F100009EF800E04FEA4E0E77
:1048500000FB0EFC38BF49004FEA2C1C02F5FA029F
:104860000CFB0EF34FEACE1E4FEA112C4FEAC1218A
:104870000EEB635E42EB22420EFB0CFC4FEA1C5334
:1048800000FB03114FEA112C4FEA01310EFB0CFC27
:104890004FEADC4C00FB0C11C14228BF09184CEB5D
:1048A00003335DF804EB10EB410143EBC250B2F56A
:1048B0007C0F38BF704729D512F0F00F1CBF00F1F4
:1048C000C04000F000407047008182838485868765
:1048D00088898B8C8D8E8F919293959697999A9CBF
:1048E0009D9FA0A2A3A5A7A8AAACAEB0B2B3B5B72E
:1048F000B9BCBEC0C2C5C7C9CCCED1D4D7D9DCDF04
:10490000E2E6E9ECF0F3F7FAFE0000004FEA400CB3
:104910000CF1807CBCF17E4F28BF7047B0F1C040E5
:1049200000F02BB990EA010F0CEAD11348BF42F412
:104930008072624538BF634507D213F47F0F16D0EB
:1049400080EA010000F00040704710B500F0CFF899
:10495000097EFC3E00F005B880EA010000F000404E
:10496000704780EA010000F0004000F006B912F440
:104970007F0F04BF0248704780EA010000F0FDB8D5
:104980000000C07FC10DD1F19E0206DB4FEA00237B
:1049900043F0004323FA02F07047004207D54FEA84
:1049A0004001B1F1FE4F02D24FF00000704710B548
:1049B00000F09DF849922480002070476FEA2000A3
:1049C00070470000B0FA80F310FA03F2C3F19D03C0
:1049D0000AD0D90501EB1220530638BF704700F109
:1049E000010008BF20F00100704700004FF47F0C69
:1049F0001CEAD0121EBF1CEAD11392EA0C0F93EAF4
:104A00000C0F00F0478090EA010F48BF42F480721B
:104A10004FF0004C4CEA00204CEA012102EB03026B
:104A2000A0FB0113A2F50002002918BF43F0010307
:104A30005B0028BF4FEA330342EB22425FEA132CAC
:104A40004CEBC2502EBFBCEB436FB2F57C0F7047EE
:104A50004FEA036CBCF1004F08BF20F00100B2F533
:104A60007C0F38BF70470BD582F0FF0212F5803FF4
:104A7000C8BF704700F1C040D8BF00F00040704789
:104A800000F5000C5FEA4C0C48BF7047B0F1C04025
:104A900000F073B890EA010F0CEAD11348BF42F45A
:104AA0008072624538BF634504D280EA010000F09D
:104AB0000040704710B500F01AF800BF8900013EB1
:104AC00000F007B800F009B85FEA410C5FEA1C6C1F
:104AD00008D080EA010000F050B85FEA400C5FEABD
:104AE0001C6CF6D14FF00040A0F5800070470EF12D
:104AF000020E2EF0030E5EF8044B244204D44FEA5B
:104B00004102B2F17F4F11D84FEA4003B3F17F4F1A
:104B10000CD80ED14FEAD07CB2F17F4F0CEB4C0C8D
:104B20000CF1020C08BF4CEBD17C04E04FF0080CF8
:104B300001E04FEAD17C0CEB4C0324FA03F404F0BF
:104B40000704B4F1040C06D20EEB840CBDE810404F
:104B50004CF0010C6047DFE80CF0070802024FF050
:104B60000040A0F5800010BD0846420018BFD2F1F9
:104B7000807288BF00F0004010BDFF2141EAD05094
:104B8000C005704790EA010F48BF81F000413FF532
:104B9000DCAD421A04D882F00042A0EB02001144BE
:104BA0004FEAD0524FF07F4C1CEA410FA2EBD15399
:104BB00018BF9CEA026F4AD04FF0004C4CEA00202C
:104BC0004CEA012121FA03FCB0EB0C0C0FD412F0DB
:104BD000FE0F36D05FEA4C001DD5001240EBC250EC
:104BE00038BF70471CF03F0F18BF70470BE0A2F1B1
:104BF00001025FEA1C2040EBC25038BF70471CF036
:104C00007F0F18BF7047C3F12003994014BF401EA7
:104C100020F00100704780084FEA122308BF704758
:104C2000B0FA80FCA2EB0C02CCF1280C60FA0CF07C
:104C300093EA122F04BF00EBC25070474FEAC370D3
:104C40007047130A5FEADC1008BF7047F6E79CEA7A
:104C5000026F04D010EA5C0F08BF0020704710B547
:104C6000FFF745FF40DFF63E81F00040704700004F
:104C70000000000000000000000000000000000034
:104C80000008080808080808000008080000004894
:104C900024241200000000000000000000000000BA
:104CA000004848487E2424247E2424240000000058
:104CB000103C5252121C30505052523C1010000006
:104CC00000222515150D2A585454522200000000C8
:104CD000000C1212120A76252919916E00000006A6
:104CE000040402000000000000000000000000407A
:104CF00020101008080808080810102040000002C2
:104D00000408081010101010100808040200000019
:104D1000000008086B1C1C6B080800000000000065
:104D2000000000101010FE10101000000000000025
:104D30000000000000000000000006040402000063
:104D40000000000000007E000000000000000000E5
:104D50000000000000000000000006060000000047
:104D6000402020201010080808040402020000005F
:104D700000182442424242424242241800000000ED
:104D800000101C10101010101010107C00000000FB
:104D9000003C4242424020100804427E00000000D5
:104DA000003C4242402018204042423C00000000AB
:104DB0000020303028242422FE2020F800000000AB
:104DC000007E0202021E22404042221C000000001F
:104DD00000182402023A46424242443800000000D1
:104DE000007E42202010100808080808000000007B
:104DF000003C4242422418244242423C000000004F
:104E0000001C22424242625C404024180000000024
:104E10000000000018180000000018180000000032
:104E20000000000000080000000000080808000062
:104E30000040201008040204081020400000000078
:104E4000000000007E00007E000000000000000066
:104E50000002040810204020100804020000000096
:104E6000003C4242462010101000181800000000BC
:104E7000001C225A55555555553A423C0000000039
:104E8000000808181414243C224242E700000000E5
:104E9000001F2222221E22424242221F0000000046
:104EA000007C4242010101010142221C000000007D
:104EB000001F2242424242424242221F00000000A2
:104EC000003F4212121E12120242423F0000000036
:104ED000003F4212121E12120202020700000000DE
:104EE000003C2222010101712122221C000000004D
:104EF00000E7424242427E42424242E70000000056
:104F0000003E0808080808080808083E00000000DD
:104F1000007C10101010101010101010110F000055
:104F2000007722120A0E0A121222227700000000D5
:104F300000070202020202020202427F0000000099
:104F4000007736363636362A2A2A2A6B00000000C9
:104F500000E346464A4A525252626247000000004D
:104F6000001C2241414141414141221C00000000FE
:104F7000003F424242423E0202020207000000009D
:104F8000001C224141414141414D321C6000000062
:104F9000003F4242423E1212222242C7000000005D
:104FA000007C4242020418204042423E00000000C1
:104FB000007F4908080808080808081C00000000CD
:104FC00000E74242424242424242423C000000006C
:104FD00000E74242222424141418080800000000AC
:104FE000006B2A2A2A2A2A361414141400000000FE
:104FF00000E7422424181818242442E70000000087
:1050000000772222141408080808081C0000000079
:10501000007E2120101008040442423F0000007866
:1050200008080808080808080808080878000000A8
:105030000204040408080810102020204040001E2C
:105040001010101010101010101010101E0000186A
:10505000240000000000000000000000000000002C
:1050600000000000000000000000000000FF00063B
:105070000800000000000000000000000000000028
:1050800000000000001C22302C22326C00000000C6
:1050900000000302021A26424242261A00000000C3
:1050A0000000000000384402020244380000000002
:1050B00000006040407C4242424262DC000000004E
:1050C00000000000003C42427E02423C0000000022
:1050D00000003048083E08080808083E00000000AC
:1050E00000000000007C22221C023C42423C0000E6
:1050F00000000302023A4642424242E7000000003A
:10510000000C0C00000E08080808083E0000000013
:10511000003030000038202020202020221E0000F7
:10512000000003020272120A0E1222770000000031
:1051300000080E08080808080808083E00000000DB
:1051400000000000007F9292929292B7000000004F
:1051500000000000003B4642424242E700000000DF
:1051600000000000003C42424242423C000000007D
:1051700000000000001B26424242261A02070000DF
:1051800000000000005864424242645840E00000C1
:105190000000000000774C040404041F000000001D
:1051A00000000000007C42023C40423E0000000043
:1051B00000000008083E0808080848300000000009
:1051C0000000000000634242424262DC0000000036
:1051D00000000000007722221414080800000000DC
:1051E0000000000000DB91525A2A24240000000035
:1051F00000000000006E241818182476000000003B
:105200000000000000E742242418180808060000E7
:1052100000000000007E22100808447E000000C04C
:10522000202020202020102020202020C00010102E
:10523000101010101010101010101010101000038B
:105240000404040404040804040404040300045AC9
:10525000200000000000000000000000000000002E
:10526000B0520008CD290008000000000000000036
:10527000800000000000000000000000B85200089C
:10528000E9290008FDFF0000000000008000000088
:10529000000000000000000000000000000000000E
:1052A00001020304060708090000000001020304CC
:1052B0005461736B310000005461736B3200000065
:1052C000E0520008000000208400000028010008CF
:1052D00064530008840000209C1900004401000869
:1052E000000000000000FF000000000000000000BF
:1052F000000000000100000010000000000000009D
:105300000024F40000000000000000000000000085
:10531000000000000000000000000000000000008D
:10532000000000000000000000000000000000007D
:10533000000000000000000000000000000000006D
:10534000000000000000000000000000000000005D
:10535000000000000000000000000000AAAAAAAAA5
:045360000000000049
:04000005080000ED02
:00000001FF
